{"contracts/test/EnumerableMapMock.sol":{"EnumerableIERC20ToUint256MapMock":{"abi":[{"anonymous":false,"inputs":[{"indexed":false,"internalType":"bool","name":"result","type":"bool"}],"name":"OperationResult","type":"event"},{"inputs":[{"internalType":"uint256","name":"index","type":"uint256"}],"name":"at","outputs":[{"internalType":"contract IERC20","name":"key","type":"address"},{"internalType":"uint256","name":"value","type":"uint256"}],"stateMutability":"view","type":"function"},{"inputs":[{"internalType":"contract IERC20","name":"key","type":"address"}],"name":"contains","outputs":[{"internalType":"bool","name":"","type":"bool"}],"stateMutability":"view","type":"function"},{"inputs":[{"internalType":"contract IERC20","name":"key","type":"address"},{"internalType":"uint256","name":"errorCode","type":"uint256"}],"name":"get","outputs":[{"internalType":"uint256","name":"","type":"uint256"}],"stateMutability":"view","type":"function"},{"inputs":[{"internalType":"contract IERC20","name":"key","type":"address"},{"internalType":"uint256","name":"errorCode","type":"uint256"}],"name":"indexOf","outputs":[{"internalType":"uint256","name":"","type":"uint256"}],"stateMutability":"view","type":"function"},{"inputs":[],"name":"length","outputs":[{"internalType":"uint256","name":"","type":"uint256"}],"stateMutability":"view","type":"function"},{"inputs":[{"internalType":"contract IERC20","name":"key","type":"address"}],"name":"remove","outputs":[],"stateMutability":"nonpayable","type":"function"},{"inputs":[{"internalType":"contract IERC20","name":"key","type":"address"},{"internalType":"uint256","name":"value","type":"uint256"}],"name":"set","outputs":[],"stateMutability":"nonpayable","type":"function"},{"inputs":[{"internalType":"uint256","name":"index","type":"uint256"}],"name":"unchecked_at","outputs":[{"internalType":"contract IERC20","name":"key","type":"address"},{"internalType":"uint256","name":"value","type":"uint256"}],"stateMutability":"view","type":"function"},{"inputs":[{"internalType":"contract IERC20","name":"key","type":"address"}],"name":"unchecked_indexOf","outputs":[{"internalType":"uint256","name":"","type":"uint256"}],"stateMutability":"view","type":"function"},{"inputs":[{"internalType":"uint256","name":"index","type":"uint256"},{"internalType":"uint256","name":"value","type":"uint256"}],"name":"unchecked_setAt","outputs":[],"stateMutability":"nonpayable","type":"function"},{"inputs":[{"internalType":"uint256","name":"index","type":"uint256"}],"name":"unchecked_valueAt","outputs":[{"internalType":"uint256","name":"value","type":"uint256"}],"stateMutability":"view","type":"function"}],"evm":{"bytecode":{"linkReferences":{},"object":"608060405234801561001057600080fd5b506108bb806100206000396000f3fe608060405234801561001057600080fd5b50600436106100c95760003560e01c8063adcd29d911610081578063cb52cb1a1161005b578063cb52cb1a14610273578063e0886f9014610296578063e37b1903146102b3576100c9565b8063adcd29d9146101d0578063b464631b146101ed578063c65d268314610226576100c9565b806329092d0e116100b257806329092d0e1461011b5780633825d828146101505780635dbe47e814610189576100c9565b80630127190b146100ce5780631f7b6d3214610113575b600080fd5b610101600480360360208110156100e457600080fd5b503573ffffffffffffffffffffffffffffffffffffffff166102ec565b60408051918252519081900360200190f35b6101016102fe565b61014e6004803603602081101561013157600080fd5b503573ffffffffffffffffffffffffffffffffffffffff1661030f565b005b61014e6004803603604081101561016657600080fd5b5073ffffffffffffffffffffffffffffffffffffffff8135169060200135610358565b6101bc6004803603602081101561019f57600080fd5b503573ffffffffffffffffffffffffffffffffffffffff166103a3565b604080519115158252519081900360200190f35b610101600480360360208110156101e657600080fd5b50356103af565b6101016004803603604081101561020357600080fd5b5073ffffffffffffffffffffffffffffffffffffffff81351690602001356103bb565b6102436004803603602081101561023c57600080fd5b50356103cf565b6040805173ffffffffffffffffffffffffffffffffffffffff909316835260208301919091528051918290030190f35b61014e6004803603604081101561028957600080fd5b50803590602001356103e5565b610243600480360360208110156102ac57600080fd5b50356103f5565b610101600480360360408110156102c957600080fd5b5073ffffffffffffffffffffffffffffffffffffffff8135169060200135610402565b60006102f8818361040f565b92915050565b600061030a600061043b565b905090565b600061031b818361043f565b60408051821515815290519192507fed9840e0775590557ad736875d96c95cf1458b766335f74339951a32c82a9e33919081900360200190a15050565b6000610365818484610590565b60408051821515815290519192507fed9840e0775590557ad736875d96c95cf1458b766335f74339951a32c82a9e33919081900360200190a1505050565b60006102f8818361068f565b60006102f881836106bd565b60006103c88184846106d3565b9392505050565b6000806103dc818461071d565b91509150915091565b6103f16000838361074e565b5050565b6000806103dc8184610766565b60006103c881848461078f565b73ffffffffffffffffffffffffffffffffffffffff166000908152600291909101602052604090205490565b5490565b73ffffffffffffffffffffffffffffffffffffffff8116600090815260028301602052604081205480156105865783547fffffffffffffffffffffffffffffffffffffffffffffffffffffffffffffffff8083019101808214610517576000818152600180880160209081526040808420868552818520815481547fffffffffffffffffffffffff00000000000000000000000000000000000000001673ffffffffffffffffffffffffffffffffffffffff9182161782558286015491860191909155905416845260028a0190915290912090830190555b600081815260018088016020908152604080842080547fffffffffffffffffffffffff0000000000000000000000000000000000000000168155830184905593895573ffffffffffffffffffffffffffffffffffffffff881683526002890190529181205592506102f8915050565b60009150506102f8565b73ffffffffffffffffffffffffffffffffffffffff821660009081526002840160205260408120548061064f575050825460408051808201825273ffffffffffffffffffffffffffffffffffffffff858116808352602080840187815260008781526001808c018452878220965187547fffffffffffffffffffffffff000000000000000000000000000000000000000016961695909517865590519484019490945594820180895590835260028801909452919020919091556103c8565b7fffffffffffffffffffffffffffffffffffffffffffffffffffffffffffffffff0160009081526001808601602052604082200183905590509392505050565b73ffffffffffffffffffffffffffffffffffffffff1660009081526002919091016020526040902054151590565b6000908152600191820160205260409020015490565b73ffffffffffffffffffffffffffffffffffffffff82166000908152600284016020526040812054610707811515846107d4565b61071485600183036106bd565b95945050505050565b6000908152600191820160205260409020805491015473ffffffffffffffffffffffffffffffffffffffff90911691565b60009182526001928301602052604090912090910155565b60008061077a8385600001541160646107d4565b610784848461071d565b915091509250929050565b60008061079c858561040f565b90506107aa811515846107d4565b7fffffffffffffffffffffffffffffffffffffffffffffffffffffffffffffffff01949350505050565b816103f1576103f181610807817f42414c000000000000000000000000000000000000000000000000000000000061080a565b50565b7f08c379a000000000000000000000000000000000000000000000000000000000600090815260206004526007602452600a808404818106603090810160081b958390069590950190829004918206850160101b01602363ffffff0060e086901c160160181b0190930160c81b60445260e882901c90606490fdfea2646970667358221220120c0b4c41b1ff75e5b7a023e7ae67f25e4805e97dcab09cc902e37cf3a2cf1b64736f6c63430007010033","opcodes":"PUSH1 0x80 PUSH1 0x40 MSTORE CALLVALUE DUP1 ISZERO PUSH2 0x10 JUMPI PUSH1 0x0 DUP1 REVERT JUMPDEST POP PUSH2 0x8BB DUP1 PUSH2 0x20 PUSH1 0x0 CODECOPY PUSH1 0x0 RETURN INVALID PUSH1 0x80 PUSH1 0x40 MSTORE CALLVALUE DUP1 ISZERO PUSH2 0x10 JUMPI PUSH1 0x0 DUP1 REVERT JUMPDEST POP PUSH1 0x4 CALLDATASIZE LT PUSH2 0xC9 JUMPI PUSH1 0x0 CALLDATALOAD PUSH1 0xE0 SHR DUP1 PUSH4 0xADCD29D9 GT PUSH2 0x81 JUMPI DUP1 PUSH4 0xCB52CB1A GT PUSH2 0x5B JUMPI DUP1 PUSH4 0xCB52CB1A EQ PUSH2 0x273 JUMPI DUP1 PUSH4 0xE0886F90 EQ PUSH2 0x296 JUMPI DUP1 PUSH4 0xE37B1903 EQ PUSH2 0x2B3 JUMPI PUSH2 0xC9 JUMP JUMPDEST DUP1 PUSH4 0xADCD29D9 EQ PUSH2 0x1D0 JUMPI DUP1 PUSH4 0xB464631B EQ PUSH2 0x1ED JUMPI DUP1 PUSH4 0xC65D2683 EQ PUSH2 0x226 JUMPI PUSH2 0xC9 JUMP JUMPDEST DUP1 PUSH4 0x29092D0E GT PUSH2 0xB2 JUMPI DUP1 PUSH4 0x29092D0E EQ PUSH2 0x11B JUMPI DUP1 PUSH4 0x3825D828 EQ PUSH2 0x150 JUMPI DUP1 PUSH4 0x5DBE47E8 EQ PUSH2 0x189 JUMPI PUSH2 0xC9 JUMP JUMPDEST DUP1 PUSH4 0x127190B EQ PUSH2 0xCE JUMPI DUP1 PUSH4 0x1F7B6D32 EQ PUSH2 0x113 JUMPI JUMPDEST PUSH1 0x0 DUP1 REVERT JUMPDEST PUSH2 0x101 PUSH1 0x4 DUP1 CALLDATASIZE SUB PUSH1 0x20 DUP2 LT ISZERO PUSH2 0xE4 JUMPI PUSH1 0x0 DUP1 REVERT JUMPDEST POP CALLDATALOAD PUSH20 0xFFFFFFFFFFFFFFFFFFFFFFFFFFFFFFFFFFFFFFFF AND PUSH2 0x2EC JUMP JUMPDEST PUSH1 0x40 DUP1 MLOAD SWAP2 DUP3 MSTORE MLOAD SWAP1 DUP2 SWAP1 SUB PUSH1 0x20 ADD SWAP1 RETURN JUMPDEST PUSH2 0x101 PUSH2 0x2FE JUMP JUMPDEST PUSH2 0x14E PUSH1 0x4 DUP1 CALLDATASIZE SUB PUSH1 0x20 DUP2 LT ISZERO PUSH2 0x131 JUMPI PUSH1 0x0 DUP1 REVERT JUMPDEST POP CALLDATALOAD PUSH20 0xFFFFFFFFFFFFFFFFFFFFFFFFFFFFFFFFFFFFFFFF AND PUSH2 0x30F JUMP JUMPDEST STOP JUMPDEST PUSH2 0x14E PUSH1 0x4 DUP1 CALLDATASIZE SUB PUSH1 0x40 DUP2 LT ISZERO PUSH2 0x166 JUMPI PUSH1 0x0 DUP1 REVERT JUMPDEST POP PUSH20 0xFFFFFFFFFFFFFFFFFFFFFFFFFFFFFFFFFFFFFFFF DUP2 CALLDATALOAD AND SWAP1 PUSH1 0x20 ADD CALLDATALOAD PUSH2 0x358 JUMP JUMPDEST PUSH2 0x1BC PUSH1 0x4 DUP1 CALLDATASIZE SUB PUSH1 0x20 DUP2 LT ISZERO PUSH2 0x19F JUMPI PUSH1 0x0 DUP1 REVERT JUMPDEST POP CALLDATALOAD PUSH20 0xFFFFFFFFFFFFFFFFFFFFFFFFFFFFFFFFFFFFFFFF AND PUSH2 0x3A3 JUMP JUMPDEST PUSH1 0x40 DUP1 MLOAD SWAP2 ISZERO ISZERO DUP3 MSTORE MLOAD SWAP1 DUP2 SWAP1 SUB PUSH1 0x20 ADD SWAP1 RETURN JUMPDEST PUSH2 0x101 PUSH1 0x4 DUP1 CALLDATASIZE SUB PUSH1 0x20 DUP2 LT ISZERO PUSH2 0x1E6 JUMPI PUSH1 0x0 DUP1 REVERT JUMPDEST POP CALLDATALOAD PUSH2 0x3AF JUMP JUMPDEST PUSH2 0x101 PUSH1 0x4 DUP1 CALLDATASIZE SUB PUSH1 0x40 DUP2 LT ISZERO PUSH2 0x203 JUMPI PUSH1 0x0 DUP1 REVERT JUMPDEST POP PUSH20 0xFFFFFFFFFFFFFFFFFFFFFFFFFFFFFFFFFFFFFFFF DUP2 CALLDATALOAD AND SWAP1 PUSH1 0x20 ADD CALLDATALOAD PUSH2 0x3BB JUMP JUMPDEST PUSH2 0x243 PUSH1 0x4 DUP1 CALLDATASIZE SUB PUSH1 0x20 DUP2 LT ISZERO PUSH2 0x23C JUMPI PUSH1 0x0 DUP1 REVERT JUMPDEST POP CALLDATALOAD PUSH2 0x3CF JUMP JUMPDEST PUSH1 0x40 DUP1 MLOAD PUSH20 0xFFFFFFFFFFFFFFFFFFFFFFFFFFFFFFFFFFFFFFFF SWAP1 SWAP4 AND DUP4 MSTORE PUSH1 0x20 DUP4 ADD SWAP2 SWAP1 SWAP2 MSTORE DUP1 MLOAD SWAP2 DUP3 SWAP1 SUB ADD SWAP1 RETURN JUMPDEST PUSH2 0x14E PUSH1 0x4 DUP1 CALLDATASIZE SUB PUSH1 0x40 DUP2 LT ISZERO PUSH2 0x289 JUMPI PUSH1 0x0 DUP1 REVERT JUMPDEST POP DUP1 CALLDATALOAD SWAP1 PUSH1 0x20 ADD CALLDATALOAD PUSH2 0x3E5 JUMP JUMPDEST PUSH2 0x243 PUSH1 0x4 DUP1 CALLDATASIZE SUB PUSH1 0x20 DUP2 LT ISZERO PUSH2 0x2AC JUMPI PUSH1 0x0 DUP1 REVERT JUMPDEST POP CALLDATALOAD PUSH2 0x3F5 JUMP JUMPDEST PUSH2 0x101 PUSH1 0x4 DUP1 CALLDATASIZE SUB PUSH1 0x40 DUP2 LT ISZERO PUSH2 0x2C9 JUMPI PUSH1 0x0 DUP1 REVERT JUMPDEST POP PUSH20 0xFFFFFFFFFFFFFFFFFFFFFFFFFFFFFFFFFFFFFFFF DUP2 CALLDATALOAD AND SWAP1 PUSH1 0x20 ADD CALLDATALOAD PUSH2 0x402 JUMP JUMPDEST PUSH1 0x0 PUSH2 0x2F8 DUP2 DUP4 PUSH2 0x40F JUMP JUMPDEST SWAP3 SWAP2 POP POP JUMP JUMPDEST PUSH1 0x0 PUSH2 0x30A PUSH1 0x0 PUSH2 0x43B JUMP JUMPDEST SWAP1 POP SWAP1 JUMP JUMPDEST PUSH1 0x0 PUSH2 0x31B DUP2 DUP4 PUSH2 0x43F JUMP JUMPDEST PUSH1 0x40 DUP1 MLOAD DUP3 ISZERO ISZERO DUP2 MSTORE SWAP1 MLOAD SWAP2 SWAP3 POP PUSH32 0xED9840E0775590557AD736875D96C95CF1458B766335F74339951A32C82A9E33 SWAP2 SWAP1 DUP2 SWAP1 SUB PUSH1 0x20 ADD SWAP1 LOG1 POP POP JUMP JUMPDEST PUSH1 0x0 PUSH2 0x365 DUP2 DUP5 DUP5 PUSH2 0x590 JUMP JUMPDEST PUSH1 0x40 DUP1 MLOAD DUP3 ISZERO ISZERO DUP2 MSTORE SWAP1 MLOAD SWAP2 SWAP3 POP PUSH32 0xED9840E0775590557AD736875D96C95CF1458B766335F74339951A32C82A9E33 SWAP2 SWAP1 DUP2 SWAP1 SUB PUSH1 0x20 ADD SWAP1 LOG1 POP POP POP JUMP JUMPDEST PUSH1 0x0 PUSH2 0x2F8 DUP2 DUP4 PUSH2 0x68F JUMP JUMPDEST PUSH1 0x0 PUSH2 0x2F8 DUP2 DUP4 PUSH2 0x6BD JUMP JUMPDEST PUSH1 0x0 PUSH2 0x3C8 DUP2 DUP5 DUP5 PUSH2 0x6D3 JUMP JUMPDEST SWAP4 SWAP3 POP POP POP JUMP JUMPDEST PUSH1 0x0 DUP1 PUSH2 0x3DC DUP2 DUP5 PUSH2 0x71D JUMP JUMPDEST SWAP2 POP SWAP2 POP SWAP2 POP SWAP2 JUMP JUMPDEST PUSH2 0x3F1 PUSH1 0x0 DUP4 DUP4 PUSH2 0x74E JUMP JUMPDEST POP POP JUMP JUMPDEST PUSH1 0x0 DUP1 PUSH2 0x3DC DUP2 DUP5 PUSH2 0x766 JUMP JUMPDEST PUSH1 0x0 PUSH2 0x3C8 DUP2 DUP5 DUP5 PUSH2 0x78F JUMP JUMPDEST PUSH20 0xFFFFFFFFFFFFFFFFFFFFFFFFFFFFFFFFFFFFFFFF AND PUSH1 0x0 SWAP1 DUP2 MSTORE PUSH1 0x2 SWAP2 SWAP1 SWAP2 ADD PUSH1 0x20 MSTORE PUSH1 0x40 SWAP1 KECCAK256 SLOAD SWAP1 JUMP JUMPDEST SLOAD SWAP1 JUMP JUMPDEST PUSH20 0xFFFFFFFFFFFFFFFFFFFFFFFFFFFFFFFFFFFFFFFF DUP2 AND PUSH1 0x0 SWAP1 DUP2 MSTORE PUSH1 0x2 DUP4 ADD PUSH1 0x20 MSTORE PUSH1 0x40 DUP2 KECCAK256 SLOAD DUP1 ISZERO PUSH2 0x586 JUMPI DUP4 SLOAD PUSH32 0xFFFFFFFFFFFFFFFFFFFFFFFFFFFFFFFFFFFFFFFFFFFFFFFFFFFFFFFFFFFFFFFF DUP1 DUP4 ADD SWAP2 ADD DUP1 DUP3 EQ PUSH2 0x517 JUMPI PUSH1 0x0 DUP2 DUP2 MSTORE PUSH1 0x1 DUP1 DUP9 ADD PUSH1 0x20 SWAP1 DUP2 MSTORE PUSH1 0x40 DUP1 DUP5 KECCAK256 DUP7 DUP6 MSTORE DUP2 DUP6 KECCAK256 DUP2 SLOAD DUP2 SLOAD PUSH32 0xFFFFFFFFFFFFFFFFFFFFFFFF0000000000000000000000000000000000000000 AND PUSH20 0xFFFFFFFFFFFFFFFFFFFFFFFFFFFFFFFFFFFFFFFF SWAP2 DUP3 AND OR DUP3 SSTORE DUP3 DUP7 ADD SLOAD SWAP2 DUP7 ADD SWAP2 SWAP1 SWAP2 SSTORE SWAP1 SLOAD AND DUP5 MSTORE PUSH1 0x2 DUP11 ADD SWAP1 SWAP2 MSTORE SWAP1 SWAP2 KECCAK256 SWAP1 DUP4 ADD SWAP1 SSTORE JUMPDEST PUSH1 0x0 DUP2 DUP2 MSTORE PUSH1 0x1 DUP1 DUP9 ADD PUSH1 0x20 SWAP1 DUP2 MSTORE PUSH1 0x40 DUP1 DUP5 KECCAK256 DUP1 SLOAD PUSH32 0xFFFFFFFFFFFFFFFFFFFFFFFF0000000000000000000000000000000000000000 AND DUP2 SSTORE DUP4 ADD DUP5 SWAP1 SSTORE SWAP4 DUP10 SSTORE PUSH20 0xFFFFFFFFFFFFFFFFFFFFFFFFFFFFFFFFFFFFFFFF DUP9 AND DUP4 MSTORE PUSH1 0x2 DUP10 ADD SWAP1 MSTORE SWAP2 DUP2 KECCAK256 SSTORE SWAP3 POP PUSH2 0x2F8 SWAP2 POP POP JUMP JUMPDEST PUSH1 0x0 SWAP2 POP POP PUSH2 0x2F8 JUMP JUMPDEST PUSH20 0xFFFFFFFFFFFFFFFFFFFFFFFFFFFFFFFFFFFFFFFF DUP3 AND PUSH1 0x0 SWAP1 DUP2 MSTORE PUSH1 0x2 DUP5 ADD PUSH1 0x20 MSTORE PUSH1 0x40 DUP2 KECCAK256 SLOAD DUP1 PUSH2 0x64F JUMPI POP POP DUP3 SLOAD PUSH1 0x40 DUP1 MLOAD DUP1 DUP3 ADD DUP3 MSTORE PUSH20 0xFFFFFFFFFFFFFFFFFFFFFFFFFFFFFFFFFFFFFFFF DUP6 DUP2 AND DUP1 DUP4 MSTORE PUSH1 0x20 DUP1 DUP5 ADD DUP8 DUP2 MSTORE PUSH1 0x0 DUP8 DUP2 MSTORE PUSH1 0x1 DUP1 DUP13 ADD DUP5 MSTORE DUP8 DUP3 KECCAK256 SWAP7 MLOAD DUP8 SLOAD PUSH32 0xFFFFFFFFFFFFFFFFFFFFFFFF0000000000000000000000000000000000000000 AND SWAP7 AND SWAP6 SWAP1 SWAP6 OR DUP7 SSTORE SWAP1 MLOAD SWAP5 DUP5 ADD SWAP5 SWAP1 SWAP5 SSTORE SWAP5 DUP3 ADD DUP1 DUP10 SSTORE SWAP1 DUP4 MSTORE PUSH1 0x2 DUP9 ADD SWAP1 SWAP5 MSTORE SWAP2 SWAP1 KECCAK256 SWAP2 SWAP1 SWAP2 SSTORE PUSH2 0x3C8 JUMP JUMPDEST PUSH32 0xFFFFFFFFFFFFFFFFFFFFFFFFFFFFFFFFFFFFFFFFFFFFFFFFFFFFFFFFFFFFFFFF ADD PUSH1 0x0 SWAP1 DUP2 MSTORE PUSH1 0x1 DUP1 DUP7 ADD PUSH1 0x20 MSTORE PUSH1 0x40 DUP3 KECCAK256 ADD DUP4 SWAP1 SSTORE SWAP1 POP SWAP4 SWAP3 POP POP POP JUMP JUMPDEST PUSH20 0xFFFFFFFFFFFFFFFFFFFFFFFFFFFFFFFFFFFFFFFF AND PUSH1 0x0 SWAP1 DUP2 MSTORE PUSH1 0x2 SWAP2 SWAP1 SWAP2 ADD PUSH1 0x20 MSTORE PUSH1 0x40 SWAP1 KECCAK256 SLOAD ISZERO ISZERO SWAP1 JUMP JUMPDEST PUSH1 0x0 SWAP1 DUP2 MSTORE PUSH1 0x1 SWAP2 DUP3 ADD PUSH1 0x20 MSTORE PUSH1 0x40 SWAP1 KECCAK256 ADD SLOAD SWAP1 JUMP JUMPDEST PUSH20 0xFFFFFFFFFFFFFFFFFFFFFFFFFFFFFFFFFFFFFFFF DUP3 AND PUSH1 0x0 SWAP1 DUP2 MSTORE PUSH1 0x2 DUP5 ADD PUSH1 0x20 MSTORE PUSH1 0x40 DUP2 KECCAK256 SLOAD PUSH2 0x707 DUP2 ISZERO ISZERO DUP5 PUSH2 0x7D4 JUMP JUMPDEST PUSH2 0x714 DUP6 PUSH1 0x1 DUP4 SUB PUSH2 0x6BD JUMP JUMPDEST SWAP6 SWAP5 POP POP POP POP POP JUMP JUMPDEST PUSH1 0x0 SWAP1 DUP2 MSTORE PUSH1 0x1 SWAP2 DUP3 ADD PUSH1 0x20 MSTORE PUSH1 0x40 SWAP1 KECCAK256 DUP1 SLOAD SWAP2 ADD SLOAD PUSH20 0xFFFFFFFFFFFFFFFFFFFFFFFFFFFFFFFFFFFFFFFF SWAP1 SWAP2 AND SWAP2 JUMP JUMPDEST PUSH1 0x0 SWAP2 DUP3 MSTORE PUSH1 0x1 SWAP3 DUP4 ADD PUSH1 0x20 MSTORE PUSH1 0x40 SWAP1 SWAP2 KECCAK256 SWAP1 SWAP2 ADD SSTORE JUMP JUMPDEST PUSH1 0x0 DUP1 PUSH2 0x77A DUP4 DUP6 PUSH1 0x0 ADD SLOAD GT PUSH1 0x64 PUSH2 0x7D4 JUMP JUMPDEST PUSH2 0x784 DUP5 DUP5 PUSH2 0x71D JUMP JUMPDEST SWAP2 POP SWAP2 POP SWAP3 POP SWAP3 SWAP1 POP JUMP JUMPDEST PUSH1 0x0 DUP1 PUSH2 0x79C DUP6 DUP6 PUSH2 0x40F JUMP JUMPDEST SWAP1 POP PUSH2 0x7AA DUP2 ISZERO ISZERO DUP5 PUSH2 0x7D4 JUMP JUMPDEST PUSH32 0xFFFFFFFFFFFFFFFFFFFFFFFFFFFFFFFFFFFFFFFFFFFFFFFFFFFFFFFFFFFFFFFF ADD SWAP5 SWAP4 POP POP POP POP JUMP JUMPDEST DUP2 PUSH2 0x3F1 JUMPI PUSH2 0x3F1 DUP2 PUSH2 0x807 DUP2 PUSH32 0x42414C0000000000000000000000000000000000000000000000000000000000 PUSH2 0x80A JUMP JUMPDEST POP JUMP JUMPDEST PUSH32 0x8C379A000000000000000000000000000000000000000000000000000000000 PUSH1 0x0 SWAP1 DUP2 MSTORE PUSH1 0x20 PUSH1 0x4 MSTORE PUSH1 0x7 PUSH1 0x24 MSTORE PUSH1 0xA DUP1 DUP5 DIV DUP2 DUP2 MOD PUSH1 0x30 SWAP1 DUP2 ADD PUSH1 0x8 SHL SWAP6 DUP4 SWAP1 MOD SWAP6 SWAP1 SWAP6 ADD SWAP1 DUP3 SWAP1 DIV SWAP2 DUP3 MOD DUP6 ADD PUSH1 0x10 SHL ADD PUSH1 0x23 PUSH4 0xFFFFFF00 PUSH1 0xE0 DUP7 SWAP1 SHR AND ADD PUSH1 0x18 SHL ADD SWAP1 SWAP4 ADD PUSH1 0xC8 SHL PUSH1 0x44 MSTORE PUSH1 0xE8 DUP3 SWAP1 SHR SWAP1 PUSH1 0x64 SWAP1 REVERT INVALID LOG2 PUSH5 0x6970667358 0x22 SLT KECCAK256 SLT 0xC SIGNEXTEND 0x4C COINBASE 0xB1 SELFDESTRUCT PUSH22 0xE5B7A023E7AE67F25E4805E97DCAB09CC902E37CF3A2 0xCF SHL PUSH5 0x736F6C6343 STOP SMOD ADD STOP CALLER "},"methodIdentifiers":{"at(uint256)":"e0886f90","contains(address)":"5dbe47e8","get(address,uint256)":"b464631b","indexOf(address,uint256)":"e37b1903","length()":"1f7b6d32","remove(address)":"29092d0e","set(address,uint256)":"3825d828","unchecked_at(uint256)":"c65d2683","unchecked_indexOf(address)":"0127190b","unchecked_setAt(uint256,uint256)":"cb52cb1a","unchecked_valueAt(uint256)":"adcd29d9"}}}}}