{"contracts/test/MockSplitCodeFactory.sol":{"MockSplitCodeFactory":{"abi":[{"inputs":[],"stateMutability":"nonpayable","type":"constructor"},{"anonymous":false,"inputs":[{"indexed":false,"internalType":"address","name":"destination","type":"address"}],"name":"ContractCreated","type":"event"},{"inputs":[{"internalType":"bytes32","name":"id","type":"bytes32"},{"internalType":"bytes32","name":"salt","type":"bytes32"}],"name":"create","outputs":[{"internalType":"address","name":"","type":"address"}],"stateMutability":"nonpayable","type":"function"},{"inputs":[],"name":"getCreationCode","outputs":[{"internalType":"bytes","name":"","type":"bytes"}],"stateMutability":"view","type":"function"},{"inputs":[],"name":"getCreationCodeContracts","outputs":[{"internalType":"address","name":"contractA","type":"address"},{"internalType":"address","name":"contractB","type":"address"}],"stateMutability":"view","type":"function"}],"evm":{"bytecode":{"linkReferences":{},"object":"61010060405234801561001157600080fd5b50604051610021602082016101c3565b601f1982820381018352601f90910116604052805160006002820460a081905280830360e081905281855290915083600061006782826100bb602090811b61024417901c565b60601b6001600160601b0319166080525082850180518382526001919061009982846100bb602090811b61024417901c565b60601b6001600160601b03191660c052959092525092909252506101d0915050565b600080826100e9577f602038038060206000396000f3fefefefefefefefefefefefefefefefefefefe61010b565b7f60fe600053602038038060206001396001016000f3fefefefefefefefefefefe5b9050835181855260208101856000f090855291506101366001600160a01b03831615156101ac61013d565b5092915050565b8161014b5761014b8161014f565b5050565b61015f816210905360ea1b610162565b50565b62461bcd60e51b600090815260206004526007602452600a808404818106603090810160081b958390069590950190829004918206850160101b01602363ffffff0060e086901c160160181b0190930160c81b60445260e882901c90606490fd5b6101078061077583390190565b60805160601c60a05160c05160601c60e051610560610215600039806102db5250806101a152806103575250806102fc525080610180528061033352506105606000f3fe608060405234801561001057600080fd5b50600436106100405760003560e01c8062c194db14610045578063174481fa146100c2578063634bc7db14610113575b600080fd5b61004d61015f565b6040805160208082528351818301528351919283929083019185019080838360005b8381101561008757818101518382015260200161006f565b50505050905090810190601f1680156100b45780820380516001836020036101000a031916815260200191505b509250505060405180910390f35b6100ca61017e565b604051808373ffffffffffffffffffffffffffffffffffffffff1681526020018273ffffffffffffffffffffffffffffffffffffffff1681526020019250505060405180910390f35b6101366004803603604081101561012957600080fd5b50803590602001356101c4565b6040805173ffffffffffffffffffffffffffffffffffffffff9092168252519081900360200190f35b6060610179604051806020016040528060008152506102d3565b905090565b7f00000000000000000000000000000000000000000000000000000000000000007f00000000000000000000000000000000000000000000000000000000000000009091565b6000806101f08460405160200180828152602001915050604051602081830303815290604052846103ac565b6040805173ffffffffffffffffffffffffffffffffffffffff8316815290519192507fcf78cf0d6f3d8371e1075c69c492ab4ec5d8cf23a1a239b6a51a1d00be7ca312919081900360200190a19392505050565b60008082610272577f602038038060206000396000f3fefefefefefefefefefefefefefefefefefefe610294565b7f60fe600053602038038060206001396001016000f3fefefefefefefefefefefe5b9050835181855260208101856000f090855291506102cc73ffffffffffffffffffffffffffffffffffffffff831615156101ac6103f6565b5092915050565b8051604080517f00000000000000000000000000000000000000000000000000000000000000007f0000000000000000000000000000000000000000000000000000000000000000818101858101848101602090810190965280855293957f00000000000000000000000000000000000000000000000000000000000000009592947f000000000000000000000000000000000000000000000000000000000000000094938801866000828a3c846001888301883c506020898101908985010161039e818386610408565b505050505050505050919050565b600060606103b9846102d3565b90506000838251602084016000f5905073ffffffffffffffffffffffffffffffffffffffff81166103ee573d6000803e3d6000fd5b949350505050565b816104045761040481610482565b5050565b5b602081106104465781518352602092830192909101907fffffffffffffffffffffffffffffffffffffffffffffffffffffffffffffffe001610409565b905182516020929092036101000a7fffffffffffffffffffffffffffffffffffffffffffffffffffffffffffffffff0180199091169116179052565b6104ac817f42414c00000000000000000000000000000000000000000000000000000000006104af565b50565b7f08c379a000000000000000000000000000000000000000000000000000000000600090815260206004526007602452600a808404818106603090810160081b958390069590950190829004918206850160101b01602363ffffff0060e086901c160160181b0190930160c81b60445260e882901c90606490fdfea2646970667358221220127b6350b6f2e1ce14e6e2006c62f2c4b625d2e434b4549cea72e4b2187d72a264736f6c63430007010033608060405234801561001057600080fd5b506040516101073803806101078339818101604052602081101561003357600080fd5b505180610075576040805162461bcd60e51b815260206004820152600b60248201526a1393d397d6915493d7d25160aa1b604482015290519081900360640190fd5b6000556081806100866000396000f3fe6080604052348015600f57600080fd5b506004361060285760003560e01c80635d1ca63114602d575b600080fd5b60336045565b60408051918252519081900360200190f35b6000549056fea264697066735822122039c640e89d74edc74929d308943363266fb3e9eb1a13277838d1094530f61e7564736f6c63430007010033","opcodes":"PUSH2 0x100 PUSH1 0x40 MSTORE CALLVALUE DUP1 ISZERO PUSH2 0x11 JUMPI PUSH1 0x0 DUP1 REVERT JUMPDEST POP PUSH1 0x40 MLOAD PUSH2 0x21 PUSH1 0x20 DUP3 ADD PUSH2 0x1C3 JUMP JUMPDEST PUSH1 0x1F NOT DUP3 DUP3 SUB DUP2 ADD DUP4 MSTORE PUSH1 0x1F SWAP1 SWAP2 ADD AND PUSH1 0x40 MSTORE DUP1 MLOAD PUSH1 0x0 PUSH1 0x2 DUP3 DIV PUSH1 0xA0 DUP2 SWAP1 MSTORE DUP1 DUP4 SUB PUSH1 0xE0 DUP2 SWAP1 MSTORE DUP2 DUP6 MSTORE SWAP1 SWAP2 POP DUP4 PUSH1 0x0 PUSH2 0x67 DUP3 DUP3 PUSH2 0xBB PUSH1 0x20 SWAP1 DUP2 SHL PUSH2 0x244 OR SWAP1 SHR JUMP JUMPDEST PUSH1 0x60 SHL PUSH1 0x1 PUSH1 0x1 PUSH1 0x60 SHL SUB NOT AND PUSH1 0x80 MSTORE POP DUP3 DUP6 ADD DUP1 MLOAD DUP4 DUP3 MSTORE PUSH1 0x1 SWAP2 SWAP1 PUSH2 0x99 DUP3 DUP5 PUSH2 0xBB PUSH1 0x20 SWAP1 DUP2 SHL PUSH2 0x244 OR SWAP1 SHR JUMP JUMPDEST PUSH1 0x60 SHL PUSH1 0x1 PUSH1 0x1 PUSH1 0x60 SHL SUB NOT AND PUSH1 0xC0 MSTORE SWAP6 SWAP1 SWAP3 MSTORE POP SWAP3 SWAP1 SWAP3 MSTORE POP PUSH2 0x1D0 SWAP2 POP POP JUMP JUMPDEST PUSH1 0x0 DUP1 DUP3 PUSH2 0xE9 JUMPI PUSH32 0x602038038060206000396000F3FEFEFEFEFEFEFEFEFEFEFEFEFEFEFEFEFEFEFE PUSH2 0x10B JUMP JUMPDEST PUSH32 0x60FE600053602038038060206001396001016000F3FEFEFEFEFEFEFEFEFEFEFE JUMPDEST SWAP1 POP DUP4 MLOAD DUP2 DUP6 MSTORE PUSH1 0x20 DUP2 ADD DUP6 PUSH1 0x0 CREATE SWAP1 DUP6 MSTORE SWAP2 POP PUSH2 0x136 PUSH1 0x1 PUSH1 0x1 PUSH1 0xA0 SHL SUB DUP4 AND ISZERO ISZERO PUSH2 0x1AC PUSH2 0x13D JUMP JUMPDEST POP SWAP3 SWAP2 POP POP JUMP JUMPDEST DUP2 PUSH2 0x14B JUMPI PUSH2 0x14B DUP2 PUSH2 0x14F JUMP JUMPDEST POP POP JUMP JUMPDEST PUSH2 0x15F DUP2 PUSH3 0x109053 PUSH1 0xEA SHL PUSH2 0x162 JUMP JUMPDEST POP JUMP JUMPDEST PUSH3 0x461BCD PUSH1 0xE5 SHL PUSH1 0x0 SWAP1 DUP2 MSTORE PUSH1 0x20 PUSH1 0x4 MSTORE PUSH1 0x7 PUSH1 0x24 MSTORE PUSH1 0xA DUP1 DUP5 DIV DUP2 DUP2 MOD PUSH1 0x30 SWAP1 DUP2 ADD PUSH1 0x8 SHL SWAP6 DUP4 SWAP1 MOD SWAP6 SWAP1 SWAP6 ADD SWAP1 DUP3 SWAP1 DIV SWAP2 DUP3 MOD DUP6 ADD PUSH1 0x10 SHL ADD PUSH1 0x23 PUSH4 0xFFFFFF00 PUSH1 0xE0 DUP7 SWAP1 SHR AND ADD PUSH1 0x18 SHL ADD SWAP1 SWAP4 ADD PUSH1 0xC8 SHL PUSH1 0x44 MSTORE PUSH1 0xE8 DUP3 SWAP1 SHR SWAP1 PUSH1 0x64 SWAP1 REVERT JUMPDEST PUSH2 0x107 DUP1 PUSH2 0x775 DUP4 CODECOPY ADD SWAP1 JUMP JUMPDEST PUSH1 0x80 MLOAD PUSH1 0x60 SHR PUSH1 0xA0 MLOAD PUSH1 0xC0 MLOAD PUSH1 0x60 SHR PUSH1 0xE0 MLOAD PUSH2 0x560 PUSH2 0x215 PUSH1 0x0 CODECOPY DUP1 PUSH2 0x2DB MSTORE POP DUP1 PUSH2 0x1A1 MSTORE DUP1 PUSH2 0x357 MSTORE POP DUP1 PUSH2 0x2FC MSTORE POP DUP1 PUSH2 0x180 MSTORE DUP1 PUSH2 0x333 MSTORE POP PUSH2 0x560 PUSH1 0x0 RETURN INVALID PUSH1 0x80 PUSH1 0x40 MSTORE CALLVALUE DUP1 ISZERO PUSH2 0x10 JUMPI PUSH1 0x0 DUP1 REVERT JUMPDEST POP PUSH1 0x4 CALLDATASIZE LT PUSH2 0x40 JUMPI PUSH1 0x0 CALLDATALOAD PUSH1 0xE0 SHR DUP1 PUSH3 0xC194DB EQ PUSH2 0x45 JUMPI DUP1 PUSH4 0x174481FA EQ PUSH2 0xC2 JUMPI DUP1 PUSH4 0x634BC7DB EQ PUSH2 0x113 JUMPI JUMPDEST PUSH1 0x0 DUP1 REVERT JUMPDEST PUSH2 0x4D PUSH2 0x15F JUMP JUMPDEST PUSH1 0x40 DUP1 MLOAD PUSH1 0x20 DUP1 DUP3 MSTORE DUP4 MLOAD DUP2 DUP4 ADD MSTORE DUP4 MLOAD SWAP2 SWAP3 DUP4 SWAP3 SWAP1 DUP4 ADD SWAP2 DUP6 ADD SWAP1 DUP1 DUP4 DUP4 PUSH1 0x0 JUMPDEST DUP4 DUP2 LT ISZERO PUSH2 0x87 JUMPI DUP2 DUP2 ADD MLOAD DUP4 DUP3 ADD MSTORE PUSH1 0x20 ADD PUSH2 0x6F JUMP JUMPDEST POP POP POP POP SWAP1 POP SWAP1 DUP2 ADD SWAP1 PUSH1 0x1F AND DUP1 ISZERO PUSH2 0xB4 JUMPI DUP1 DUP3 SUB DUP1 MLOAD PUSH1 0x1 DUP4 PUSH1 0x20 SUB PUSH2 0x100 EXP SUB NOT AND DUP2 MSTORE PUSH1 0x20 ADD SWAP2 POP JUMPDEST POP SWAP3 POP POP POP PUSH1 0x40 MLOAD DUP1 SWAP2 SUB SWAP1 RETURN JUMPDEST PUSH2 0xCA PUSH2 0x17E JUMP JUMPDEST PUSH1 0x40 MLOAD DUP1 DUP4 PUSH20 0xFFFFFFFFFFFFFFFFFFFFFFFFFFFFFFFFFFFFFFFF AND DUP2 MSTORE PUSH1 0x20 ADD DUP3 PUSH20 0xFFFFFFFFFFFFFFFFFFFFFFFFFFFFFFFFFFFFFFFF AND DUP2 MSTORE PUSH1 0x20 ADD SWAP3 POP POP POP PUSH1 0x40 MLOAD DUP1 SWAP2 SUB SWAP1 RETURN JUMPDEST PUSH2 0x136 PUSH1 0x4 DUP1 CALLDATASIZE SUB PUSH1 0x40 DUP2 LT ISZERO PUSH2 0x129 JUMPI PUSH1 0x0 DUP1 REVERT JUMPDEST POP DUP1 CALLDATALOAD SWAP1 PUSH1 0x20 ADD CALLDATALOAD PUSH2 0x1C4 JUMP JUMPDEST PUSH1 0x40 DUP1 MLOAD PUSH20 0xFFFFFFFFFFFFFFFFFFFFFFFFFFFFFFFFFFFFFFFF SWAP1 SWAP3 AND DUP3 MSTORE MLOAD SWAP1 DUP2 SWAP1 SUB PUSH1 0x20 ADD SWAP1 RETURN JUMPDEST PUSH1 0x60 PUSH2 0x179 PUSH1 0x40 MLOAD DUP1 PUSH1 0x20 ADD PUSH1 0x40 MSTORE DUP1 PUSH1 0x0 DUP2 MSTORE POP PUSH2 0x2D3 JUMP JUMPDEST SWAP1 POP SWAP1 JUMP JUMPDEST PUSH32 0x0 PUSH32 0x0 SWAP1 SWAP2 JUMP JUMPDEST PUSH1 0x0 DUP1 PUSH2 0x1F0 DUP5 PUSH1 0x40 MLOAD PUSH1 0x20 ADD DUP1 DUP3 DUP2 MSTORE PUSH1 0x20 ADD SWAP2 POP POP PUSH1 0x40 MLOAD PUSH1 0x20 DUP2 DUP4 SUB SUB DUP2 MSTORE SWAP1 PUSH1 0x40 MSTORE DUP5 PUSH2 0x3AC JUMP JUMPDEST PUSH1 0x40 DUP1 MLOAD PUSH20 0xFFFFFFFFFFFFFFFFFFFFFFFFFFFFFFFFFFFFFFFF DUP4 AND DUP2 MSTORE SWAP1 MLOAD SWAP2 SWAP3 POP PUSH32 0xCF78CF0D6F3D8371E1075C69C492AB4EC5D8CF23A1A239B6A51A1D00BE7CA312 SWAP2 SWAP1 DUP2 SWAP1 SUB PUSH1 0x20 ADD SWAP1 LOG1 SWAP4 SWAP3 POP POP POP JUMP JUMPDEST PUSH1 0x0 DUP1 DUP3 PUSH2 0x272 JUMPI PUSH32 0x602038038060206000396000F3FEFEFEFEFEFEFEFEFEFEFEFEFEFEFEFEFEFEFE PUSH2 0x294 JUMP JUMPDEST PUSH32 0x60FE600053602038038060206001396001016000F3FEFEFEFEFEFEFEFEFEFEFE JUMPDEST SWAP1 POP DUP4 MLOAD DUP2 DUP6 MSTORE PUSH1 0x20 DUP2 ADD DUP6 PUSH1 0x0 CREATE SWAP1 DUP6 MSTORE SWAP2 POP PUSH2 0x2CC PUSH20 0xFFFFFFFFFFFFFFFFFFFFFFFFFFFFFFFFFFFFFFFF DUP4 AND ISZERO ISZERO PUSH2 0x1AC PUSH2 0x3F6 JUMP JUMPDEST POP SWAP3 SWAP2 POP POP JUMP JUMPDEST DUP1 MLOAD PUSH1 0x40 DUP1 MLOAD PUSH32 0x0 PUSH32 0x0 DUP2 DUP2 ADD DUP6 DUP2 ADD DUP5 DUP2 ADD PUSH1 0x20 SWAP1 DUP2 ADD SWAP1 SWAP7 MSTORE DUP1 DUP6 MSTORE SWAP4 SWAP6 PUSH32 0x0 SWAP6 SWAP3 SWAP5 PUSH32 0x0 SWAP5 SWAP4 DUP9 ADD DUP7 PUSH1 0x0 DUP3 DUP11 EXTCODECOPY DUP5 PUSH1 0x1 DUP9 DUP4 ADD DUP9 EXTCODECOPY POP PUSH1 0x20 DUP10 DUP2 ADD SWAP1 DUP10 DUP6 ADD ADD PUSH2 0x39E DUP2 DUP4 DUP7 PUSH2 0x408 JUMP JUMPDEST POP POP POP POP POP POP POP POP POP SWAP2 SWAP1 POP JUMP JUMPDEST PUSH1 0x0 PUSH1 0x60 PUSH2 0x3B9 DUP5 PUSH2 0x2D3 JUMP JUMPDEST SWAP1 POP PUSH1 0x0 DUP4 DUP3 MLOAD PUSH1 0x20 DUP5 ADD PUSH1 0x0 CREATE2 SWAP1 POP PUSH20 0xFFFFFFFFFFFFFFFFFFFFFFFFFFFFFFFFFFFFFFFF DUP2 AND PUSH2 0x3EE JUMPI RETURNDATASIZE PUSH1 0x0 DUP1 RETURNDATACOPY RETURNDATASIZE PUSH1 0x0 REVERT JUMPDEST SWAP5 SWAP4 POP POP POP POP JUMP JUMPDEST DUP2 PUSH2 0x404 JUMPI PUSH2 0x404 DUP2 PUSH2 0x482 JUMP JUMPDEST POP POP JUMP JUMPDEST JUMPDEST PUSH1 0x20 DUP2 LT PUSH2 0x446 JUMPI DUP2 MLOAD DUP4 MSTORE PUSH1 0x20 SWAP3 DUP4 ADD SWAP3 SWAP1 SWAP2 ADD SWAP1 PUSH32 0xFFFFFFFFFFFFFFFFFFFFFFFFFFFFFFFFFFFFFFFFFFFFFFFFFFFFFFFFFFFFFFE0 ADD PUSH2 0x409 JUMP JUMPDEST SWAP1 MLOAD DUP3 MLOAD PUSH1 0x20 SWAP3 SWAP1 SWAP3 SUB PUSH2 0x100 EXP PUSH32 0xFFFFFFFFFFFFFFFFFFFFFFFFFFFFFFFFFFFFFFFFFFFFFFFFFFFFFFFFFFFFFFFF ADD DUP1 NOT SWAP1 SWAP2 AND SWAP2 AND OR SWAP1 MSTORE JUMP JUMPDEST PUSH2 0x4AC DUP2 PUSH32 0x42414C0000000000000000000000000000000000000000000000000000000000 PUSH2 0x4AF JUMP JUMPDEST POP JUMP JUMPDEST PUSH32 0x8C379A000000000000000000000000000000000000000000000000000000000 PUSH1 0x0 SWAP1 DUP2 MSTORE PUSH1 0x20 PUSH1 0x4 MSTORE PUSH1 0x7 PUSH1 0x24 MSTORE PUSH1 0xA DUP1 DUP5 DIV DUP2 DUP2 MOD PUSH1 0x30 SWAP1 DUP2 ADD PUSH1 0x8 SHL SWAP6 DUP4 SWAP1 MOD SWAP6 SWAP1 SWAP6 ADD SWAP1 DUP3 SWAP1 DIV SWAP2 DUP3 MOD DUP6 ADD PUSH1 0x10 SHL ADD PUSH1 0x23 PUSH4 0xFFFFFF00 PUSH1 0xE0 DUP7 SWAP1 SHR AND ADD PUSH1 0x18 SHL ADD SWAP1 SWAP4 ADD PUSH1 0xC8 SHL PUSH1 0x44 MSTORE PUSH1 0xE8 DUP3 SWAP1 SHR SWAP1 PUSH1 0x64 SWAP1 REVERT INVALID LOG2 PUSH5 0x6970667358 0x22 SLT KECCAK256 SLT PUSH28 0x6350B6F2E1CE14E6E2006C62F2C4B625D2E434B4549CEA72E4B2187D PUSH19 0xA264736F6C6343000701003360806040523480 ISZERO PUSH2 0x10 JUMPI PUSH1 0x0 DUP1 REVERT JUMPDEST POP PUSH1 0x40 MLOAD PUSH2 0x107 CODESIZE SUB DUP1 PUSH2 0x107 DUP4 CODECOPY DUP2 DUP2 ADD PUSH1 0x40 MSTORE PUSH1 0x20 DUP2 LT ISZERO PUSH2 0x33 JUMPI PUSH1 0x0 DUP1 REVERT JUMPDEST POP MLOAD DUP1 PUSH2 0x75 JUMPI PUSH1 0x40 DUP1 MLOAD PUSH3 0x461BCD PUSH1 0xE5 SHL DUP2 MSTORE PUSH1 0x20 PUSH1 0x4 DUP3 ADD MSTORE PUSH1 0xB PUSH1 0x24 DUP3 ADD MSTORE PUSH11 0x1393D397D6915493D7D251 PUSH1 0xAA SHL PUSH1 0x44 DUP3 ADD MSTORE SWAP1 MLOAD SWAP1 DUP2 SWAP1 SUB PUSH1 0x64 ADD SWAP1 REVERT JUMPDEST PUSH1 0x0 SSTORE PUSH1 0x81 DUP1 PUSH2 0x86 PUSH1 0x0 CODECOPY PUSH1 0x0 RETURN INVALID PUSH1 0x80 PUSH1 0x40 MSTORE CALLVALUE DUP1 ISZERO PUSH1 0xF JUMPI PUSH1 0x0 DUP1 REVERT JUMPDEST POP PUSH1 0x4 CALLDATASIZE LT PUSH1 0x28 JUMPI PUSH1 0x0 CALLDATALOAD PUSH1 0xE0 SHR DUP1 PUSH4 0x5D1CA631 EQ PUSH1 0x2D JUMPI JUMPDEST PUSH1 0x0 DUP1 REVERT JUMPDEST PUSH1 0x33 PUSH1 0x45 JUMP JUMPDEST PUSH1 0x40 DUP1 MLOAD SWAP2 DUP3 MSTORE MLOAD SWAP1 DUP2 SWAP1 SUB PUSH1 0x20 ADD SWAP1 RETURN JUMPDEST PUSH1 0x0 SLOAD SWAP1 JUMP INVALID LOG2 PUSH5 0x6970667358 0x22 SLT KECCAK256 CODECOPY 0xC6 BLOCKHASH 0xE8 SWAP14 PUSH21 0xEDC74929D308943363266FB3E9EB1A13277838D109 GASLIMIT ADDRESS 0xF6 0x1E PUSH22 0x64736F6C634300070100330000000000000000000000 "},"methodIdentifiers":{"create(bytes32,bytes32)":"634bc7db","getCreationCode()":"00c194db","getCreationCodeContracts()":"174481fa"}}}}}