{"contracts/test/BalancerErrorsMock.sol":{"BalancerErrorsMock":{"abi":[{"inputs":[{"internalType":"uint256","name":"code","type":"uint256"}],"name":"fail","outputs":[],"stateMutability":"pure","type":"function"},{"inputs":[{"internalType":"uint256","name":"code","type":"uint256"},{"internalType":"bytes3","name":"prefix","type":"bytes3"}],"name":"failWithPrefix","outputs":[],"stateMutability":"pure","type":"function"}],"evm":{"bytecode":{"linkReferences":{},"object":"608060405234801561001057600080fd5b50610190806100206000396000f3fe608060405234801561001057600080fd5b50600436106100365760003560e01c8063132e4f3c1461003b5780639aac0d2d1461005a575b600080fd5b6100586004803603602081101561005157600080fd5b503561009f565b005b6100586004803603604081101561007057600080fd5b50803590602001357fffffff0000000000000000000000000000000000000000000000000000000000166100ab565b6100a8816100b9565b50565b6100b582826100df565b5050565b6100a8817f42414c00000000000000000000000000000000000000000000000000000000005b7f08c379a000000000000000000000000000000000000000000000000000000000600090815260206004526007602452600a808404818106603090810160081b958390069590950190829004918206850160101b01602363ffffff0060e086901c160160181b0190930160c81b60445260e882901c90606490fdfea2646970667358221220aa9497066a344039f3f104252a2f929f1ce9cb465afdbaa1839cd970566f8cc064736f6c63430007010033","opcodes":"PUSH1 0x80 PUSH1 0x40 MSTORE CALLVALUE DUP1 ISZERO PUSH2 0x10 JUMPI PUSH1 0x0 DUP1 REVERT JUMPDEST POP PUSH2 0x190 DUP1 PUSH2 0x20 PUSH1 0x0 CODECOPY PUSH1 0x0 RETURN INVALID PUSH1 0x80 PUSH1 0x40 MSTORE CALLVALUE DUP1 ISZERO PUSH2 0x10 JUMPI PUSH1 0x0 DUP1 REVERT JUMPDEST POP PUSH1 0x4 CALLDATASIZE LT PUSH2 0x36 JUMPI PUSH1 0x0 CALLDATALOAD PUSH1 0xE0 SHR DUP1 PUSH4 0x132E4F3C EQ PUSH2 0x3B JUMPI DUP1 PUSH4 0x9AAC0D2D EQ PUSH2 0x5A JUMPI JUMPDEST PUSH1 0x0 DUP1 REVERT JUMPDEST PUSH2 0x58 PUSH1 0x4 DUP1 CALLDATASIZE SUB PUSH1 0x20 DUP2 LT ISZERO PUSH2 0x51 JUMPI PUSH1 0x0 DUP1 REVERT JUMPDEST POP CALLDATALOAD PUSH2 0x9F JUMP JUMPDEST STOP JUMPDEST PUSH2 0x58 PUSH1 0x4 DUP1 CALLDATASIZE SUB PUSH1 0x40 DUP2 LT ISZERO PUSH2 0x70 JUMPI PUSH1 0x0 DUP1 REVERT JUMPDEST POP DUP1 CALLDATALOAD SWAP1 PUSH1 0x20 ADD CALLDATALOAD PUSH32 0xFFFFFF0000000000000000000000000000000000000000000000000000000000 AND PUSH2 0xAB JUMP JUMPDEST PUSH2 0xA8 DUP2 PUSH2 0xB9 JUMP JUMPDEST POP JUMP JUMPDEST PUSH2 0xB5 DUP3 DUP3 PUSH2 0xDF JUMP JUMPDEST POP POP JUMP JUMPDEST PUSH2 0xA8 DUP2 PUSH32 0x42414C0000000000000000000000000000000000000000000000000000000000 JUMPDEST PUSH32 0x8C379A000000000000000000000000000000000000000000000000000000000 PUSH1 0x0 SWAP1 DUP2 MSTORE PUSH1 0x20 PUSH1 0x4 MSTORE PUSH1 0x7 PUSH1 0x24 MSTORE PUSH1 0xA DUP1 DUP5 DIV DUP2 DUP2 MOD PUSH1 0x30 SWAP1 DUP2 ADD PUSH1 0x8 SHL SWAP6 DUP4 SWAP1 MOD SWAP6 SWAP1 SWAP6 ADD SWAP1 DUP3 SWAP1 DIV SWAP2 DUP3 MOD DUP6 ADD PUSH1 0x10 SHL ADD PUSH1 0x23 PUSH4 0xFFFFFF00 PUSH1 0xE0 DUP7 SWAP1 SHR AND ADD PUSH1 0x18 SHL ADD SWAP1 SWAP4 ADD PUSH1 0xC8 SHL PUSH1 0x44 MSTORE PUSH1 0xE8 DUP3 SWAP1 SHR SWAP1 PUSH1 0x64 SWAP1 REVERT INVALID LOG2 PUSH5 0x6970667358 0x22 SLT KECCAK256 0xAA SWAP5 SWAP8 MOD PUSH11 0x344039F3F104252A2F929F SHR 0xE9 0xCB CHAINID GAS REVERT 0xBA LOG1 DUP4 SWAP13 0xD9 PUSH17 0x566F8CC064736F6C634300070100330000 "},"methodIdentifiers":{"fail(uint256)":"132e4f3c","failWithPrefix(uint256,bytes3)":"9aac0d2d"}}}}}