{"contracts/test/MockScalingHelpers.sol":{"MockScalingHelpers":{"abi":[{"inputs":[{"internalType":"uint256","name":"amount","type":"uint256"},{"internalType":"uint256","name":"scalingFactor","type":"uint256"}],"name":"downscaleDown","outputs":[{"internalType":"uint256","name":"","type":"uint256"}],"stateMutability":"pure","type":"function"},{"inputs":[{"internalType":"uint256[]","name":"amounts","type":"uint256[]"},{"internalType":"uint256[]","name":"scalingFactors","type":"uint256[]"}],"name":"downscaleDownArray","outputs":[{"internalType":"uint256[]","name":"","type":"uint256[]"}],"stateMutability":"pure","type":"function"},{"inputs":[{"internalType":"uint256","name":"amount","type":"uint256"},{"internalType":"uint256","name":"scalingFactor","type":"uint256"}],"name":"downscaleUp","outputs":[{"internalType":"uint256","name":"","type":"uint256"}],"stateMutability":"pure","type":"function"},{"inputs":[{"internalType":"uint256[]","name":"amounts","type":"uint256[]"},{"internalType":"uint256[]","name":"scalingFactors","type":"uint256[]"}],"name":"downscaleUpArray","outputs":[{"internalType":"uint256[]","name":"","type":"uint256[]"}],"stateMutability":"pure","type":"function"},{"inputs":[{"internalType":"uint256","name":"amount","type":"uint256"},{"internalType":"uint256","name":"scalingFactor","type":"uint256"}],"name":"upscale","outputs":[{"internalType":"uint256","name":"","type":"uint256"}],"stateMutability":"pure","type":"function"},{"inputs":[{"internalType":"uint256[]","name":"amounts","type":"uint256[]"},{"internalType":"uint256[]","name":"scalingFactors","type":"uint256[]"}],"name":"upscaleArray","outputs":[{"internalType":"uint256[]","name":"","type":"uint256[]"}],"stateMutability":"pure","type":"function"}],"evm":{"bytecode":{"linkReferences":{},"object":"608060405234801561001057600080fd5b506105f0806100206000396000f3fe608060405234801561001057600080fd5b50600436106100725760003560e01c806351d7f8e71161005057806351d7f8e7146100d357806374cd2c44146100e65780638f26f906146100f957610072565b806313c809d4146100775780632659f004146100a05780634f547360146100c0575b600080fd5b61008a61008536600461054c565b61010c565b60405161009791906105b1565b60405180910390f35b6100b36100ae3660046104eb565b61011f565b604051610097919061056d565b6100b36100ce3660046104eb565b610132565b6100b36100e13660046104eb565b61013e565b61008a6100f436600461054c565b61014a565b61008a61010736600461054c565b610156565b60006101188383610162565b9392505050565b606061012b838361016e565b5090919050565b606061012b83836101dd565b606061012b8383610246565b600061011883836102af565b600061011883836102bb565b600061011883836102c7565b8151815161017d9082906102ff565b60005b818110156101d7576101b884828151811061019757fe5b60200260200101518483815181106101ab57fe5b6020026020010151610310565b8482815181106101c457fe5b6020908102919091010152600101610180565b50505050565b815181516101ec9082906102ff565b60005b818110156101d75761022784828151811061020657fe5b602002602001015184838151811061021a57fe5b602002602001015161035a565b84828151811061023357fe5b60209081029190910101526001016101ef565b815181516102559082906102ff565b60005b818110156101d75761029084828151811061026f57fe5b602002602001015184838151811061028357fe5b60200260200101516102c7565b84828151811061029c57fe5b6020908102919091010152600101610258565b6000610118838361035a565b60006101188383610310565b60008282026102eb8415806102e45750838583816102e157fe5b04145b60036103a7565b670de0b6b3a7640000815b04949350505050565b61030c81831460676103a7565b5050565b600061031f82151560046103a7565b670de0b6b3a7640000830261035184158061034a5750670de0b6b3a764000085838161034757fe5b04145b60056103a7565b8281816102f657fe5b600061036982151560046103a7565b670de0b6b3a7640000830261039184158061034a5750670de0b6b3a764000085838161034757fe5b6001836001830304018115150291505092915050565b8161030c5761030c816103da817f42414c00000000000000000000000000000000000000000000000000000000006103dd565b50565b7f08c379a000000000000000000000000000000000000000000000000000000000600090815260206004526007602452600a808404818106603090810160081b958390069590950190829004918206850160101b01602363ffffff0060e086901c160160181b0190930160c81b60445260e882901c90606490fd5b600082601f830112610468578081fd5b813567ffffffffffffffff8082111561047f578283fd5b60208083026040518282820101818110858211171561049c578687fd5b6040528481529450818501925085820181870183018810156104bd57600080fd5b600091505b848210156104e05780358452928201926001919091019082016104c2565b505050505092915050565b600080604083850312156104fd578182fd5b823567ffffffffffffffff80821115610514578384fd5b61052086838701610458565b93506020850135915080821115610535578283fd5b5061054285828601610458565b9150509250929050565b6000806040838503121561055e578182fd5b50508035926020909101359150565b6020808252825182820181905260009190848201906040850190845b818110156105a557835183529284019291840191600101610589565b50909695505050505050565b9081526020019056fea2646970667358221220a5949228ff8b645ec2aca50bc10186fbe28905bb5ad72d3998af79da3965ca3164736f6c63430007010033","opcodes":"PUSH1 0x80 PUSH1 0x40 MSTORE CALLVALUE DUP1 ISZERO PUSH2 0x10 JUMPI PUSH1 0x0 DUP1 REVERT JUMPDEST POP PUSH2 0x5F0 DUP1 PUSH2 0x20 PUSH1 0x0 CODECOPY PUSH1 0x0 RETURN INVALID PUSH1 0x80 PUSH1 0x40 MSTORE CALLVALUE DUP1 ISZERO PUSH2 0x10 JUMPI PUSH1 0x0 DUP1 REVERT JUMPDEST POP PUSH1 0x4 CALLDATASIZE LT PUSH2 0x72 JUMPI PUSH1 0x0 CALLDATALOAD PUSH1 0xE0 SHR DUP1 PUSH4 0x51D7F8E7 GT PUSH2 0x50 JUMPI DUP1 PUSH4 0x51D7F8E7 EQ PUSH2 0xD3 JUMPI DUP1 PUSH4 0x74CD2C44 EQ PUSH2 0xE6 JUMPI DUP1 PUSH4 0x8F26F906 EQ PUSH2 0xF9 JUMPI PUSH2 0x72 JUMP JUMPDEST DUP1 PUSH4 0x13C809D4 EQ PUSH2 0x77 JUMPI DUP1 PUSH4 0x2659F004 EQ PUSH2 0xA0 JUMPI DUP1 PUSH4 0x4F547360 EQ PUSH2 0xC0 JUMPI JUMPDEST PUSH1 0x0 DUP1 REVERT JUMPDEST PUSH2 0x8A PUSH2 0x85 CALLDATASIZE PUSH1 0x4 PUSH2 0x54C JUMP JUMPDEST PUSH2 0x10C JUMP JUMPDEST PUSH1 0x40 MLOAD PUSH2 0x97 SWAP2 SWAP1 PUSH2 0x5B1 JUMP JUMPDEST PUSH1 0x40 MLOAD DUP1 SWAP2 SUB SWAP1 RETURN JUMPDEST PUSH2 0xB3 PUSH2 0xAE CALLDATASIZE PUSH1 0x4 PUSH2 0x4EB JUMP JUMPDEST PUSH2 0x11F JUMP JUMPDEST PUSH1 0x40 MLOAD PUSH2 0x97 SWAP2 SWAP1 PUSH2 0x56D JUMP JUMPDEST PUSH2 0xB3 PUSH2 0xCE CALLDATASIZE PUSH1 0x4 PUSH2 0x4EB JUMP JUMPDEST PUSH2 0x132 JUMP JUMPDEST PUSH2 0xB3 PUSH2 0xE1 CALLDATASIZE PUSH1 0x4 PUSH2 0x4EB JUMP JUMPDEST PUSH2 0x13E JUMP JUMPDEST PUSH2 0x8A PUSH2 0xF4 CALLDATASIZE PUSH1 0x4 PUSH2 0x54C JUMP JUMPDEST PUSH2 0x14A JUMP JUMPDEST PUSH2 0x8A PUSH2 0x107 CALLDATASIZE PUSH1 0x4 PUSH2 0x54C JUMP JUMPDEST PUSH2 0x156 JUMP JUMPDEST PUSH1 0x0 PUSH2 0x118 DUP4 DUP4 PUSH2 0x162 JUMP JUMPDEST SWAP4 SWAP3 POP POP POP JUMP JUMPDEST PUSH1 0x60 PUSH2 0x12B DUP4 DUP4 PUSH2 0x16E JUMP JUMPDEST POP SWAP1 SWAP2 SWAP1 POP JUMP JUMPDEST PUSH1 0x60 PUSH2 0x12B DUP4 DUP4 PUSH2 0x1DD JUMP JUMPDEST PUSH1 0x60 PUSH2 0x12B DUP4 DUP4 PUSH2 0x246 JUMP JUMPDEST PUSH1 0x0 PUSH2 0x118 DUP4 DUP4 PUSH2 0x2AF JUMP JUMPDEST PUSH1 0x0 PUSH2 0x118 DUP4 DUP4 PUSH2 0x2BB JUMP JUMPDEST PUSH1 0x0 PUSH2 0x118 DUP4 DUP4 PUSH2 0x2C7 JUMP JUMPDEST DUP2 MLOAD DUP2 MLOAD PUSH2 0x17D SWAP1 DUP3 SWAP1 PUSH2 0x2FF JUMP JUMPDEST PUSH1 0x0 JUMPDEST DUP2 DUP2 LT ISZERO PUSH2 0x1D7 JUMPI PUSH2 0x1B8 DUP5 DUP3 DUP2 MLOAD DUP2 LT PUSH2 0x197 JUMPI INVALID JUMPDEST PUSH1 0x20 MUL PUSH1 0x20 ADD ADD MLOAD DUP5 DUP4 DUP2 MLOAD DUP2 LT PUSH2 0x1AB JUMPI INVALID JUMPDEST PUSH1 0x20 MUL PUSH1 0x20 ADD ADD MLOAD PUSH2 0x310 JUMP JUMPDEST DUP5 DUP3 DUP2 MLOAD DUP2 LT PUSH2 0x1C4 JUMPI INVALID JUMPDEST PUSH1 0x20 SWAP1 DUP2 MUL SWAP2 SWAP1 SWAP2 ADD ADD MSTORE PUSH1 0x1 ADD PUSH2 0x180 JUMP JUMPDEST POP POP POP POP JUMP JUMPDEST DUP2 MLOAD DUP2 MLOAD PUSH2 0x1EC SWAP1 DUP3 SWAP1 PUSH2 0x2FF JUMP JUMPDEST PUSH1 0x0 JUMPDEST DUP2 DUP2 LT ISZERO PUSH2 0x1D7 JUMPI PUSH2 0x227 DUP5 DUP3 DUP2 MLOAD DUP2 LT PUSH2 0x206 JUMPI INVALID JUMPDEST PUSH1 0x20 MUL PUSH1 0x20 ADD ADD MLOAD DUP5 DUP4 DUP2 MLOAD DUP2 LT PUSH2 0x21A JUMPI INVALID JUMPDEST PUSH1 0x20 MUL PUSH1 0x20 ADD ADD MLOAD PUSH2 0x35A JUMP JUMPDEST DUP5 DUP3 DUP2 MLOAD DUP2 LT PUSH2 0x233 JUMPI INVALID JUMPDEST PUSH1 0x20 SWAP1 DUP2 MUL SWAP2 SWAP1 SWAP2 ADD ADD MSTORE PUSH1 0x1 ADD PUSH2 0x1EF JUMP JUMPDEST DUP2 MLOAD DUP2 MLOAD PUSH2 0x255 SWAP1 DUP3 SWAP1 PUSH2 0x2FF JUMP JUMPDEST PUSH1 0x0 JUMPDEST DUP2 DUP2 LT ISZERO PUSH2 0x1D7 JUMPI PUSH2 0x290 DUP5 DUP3 DUP2 MLOAD DUP2 LT PUSH2 0x26F JUMPI INVALID JUMPDEST PUSH1 0x20 MUL PUSH1 0x20 ADD ADD MLOAD DUP5 DUP4 DUP2 MLOAD DUP2 LT PUSH2 0x283 JUMPI INVALID JUMPDEST PUSH1 0x20 MUL PUSH1 0x20 ADD ADD MLOAD PUSH2 0x2C7 JUMP JUMPDEST DUP5 DUP3 DUP2 MLOAD DUP2 LT PUSH2 0x29C JUMPI INVALID JUMPDEST PUSH1 0x20 SWAP1 DUP2 MUL SWAP2 SWAP1 SWAP2 ADD ADD MSTORE PUSH1 0x1 ADD PUSH2 0x258 JUMP JUMPDEST PUSH1 0x0 PUSH2 0x118 DUP4 DUP4 PUSH2 0x35A JUMP JUMPDEST PUSH1 0x0 PUSH2 0x118 DUP4 DUP4 PUSH2 0x310 JUMP JUMPDEST PUSH1 0x0 DUP3 DUP3 MUL PUSH2 0x2EB DUP5 ISZERO DUP1 PUSH2 0x2E4 JUMPI POP DUP4 DUP6 DUP4 DUP2 PUSH2 0x2E1 JUMPI INVALID JUMPDEST DIV EQ JUMPDEST PUSH1 0x3 PUSH2 0x3A7 JUMP JUMPDEST PUSH8 0xDE0B6B3A7640000 DUP2 JUMPDEST DIV SWAP5 SWAP4 POP POP POP POP JUMP JUMPDEST PUSH2 0x30C DUP2 DUP4 EQ PUSH1 0x67 PUSH2 0x3A7 JUMP JUMPDEST POP POP JUMP JUMPDEST PUSH1 0x0 PUSH2 0x31F DUP3 ISZERO ISZERO PUSH1 0x4 PUSH2 0x3A7 JUMP JUMPDEST PUSH8 0xDE0B6B3A7640000 DUP4 MUL PUSH2 0x351 DUP5 ISZERO DUP1 PUSH2 0x34A JUMPI POP PUSH8 0xDE0B6B3A7640000 DUP6 DUP4 DUP2 PUSH2 0x347 JUMPI INVALID JUMPDEST DIV EQ JUMPDEST PUSH1 0x5 PUSH2 0x3A7 JUMP JUMPDEST DUP3 DUP2 DUP2 PUSH2 0x2F6 JUMPI INVALID JUMPDEST PUSH1 0x0 PUSH2 0x369 DUP3 ISZERO ISZERO PUSH1 0x4 PUSH2 0x3A7 JUMP JUMPDEST PUSH8 0xDE0B6B3A7640000 DUP4 MUL PUSH2 0x391 DUP5 ISZERO DUP1 PUSH2 0x34A JUMPI POP PUSH8 0xDE0B6B3A7640000 DUP6 DUP4 DUP2 PUSH2 0x347 JUMPI INVALID JUMPDEST PUSH1 0x1 DUP4 PUSH1 0x1 DUP4 SUB DIV ADD DUP2 ISZERO ISZERO MUL SWAP2 POP POP SWAP3 SWAP2 POP POP JUMP JUMPDEST DUP2 PUSH2 0x30C JUMPI PUSH2 0x30C DUP2 PUSH2 0x3DA DUP2 PUSH32 0x42414C0000000000000000000000000000000000000000000000000000000000 PUSH2 0x3DD JUMP JUMPDEST POP JUMP JUMPDEST PUSH32 0x8C379A000000000000000000000000000000000000000000000000000000000 PUSH1 0x0 SWAP1 DUP2 MSTORE PUSH1 0x20 PUSH1 0x4 MSTORE PUSH1 0x7 PUSH1 0x24 MSTORE PUSH1 0xA DUP1 DUP5 DIV DUP2 DUP2 MOD PUSH1 0x30 SWAP1 DUP2 ADD PUSH1 0x8 SHL SWAP6 DUP4 SWAP1 MOD SWAP6 SWAP1 SWAP6 ADD SWAP1 DUP3 SWAP1 DIV SWAP2 DUP3 MOD DUP6 ADD PUSH1 0x10 SHL ADD PUSH1 0x23 PUSH4 0xFFFFFF00 PUSH1 0xE0 DUP7 SWAP1 SHR AND ADD PUSH1 0x18 SHL ADD SWAP1 SWAP4 ADD PUSH1 0xC8 SHL PUSH1 0x44 MSTORE PUSH1 0xE8 DUP3 SWAP1 SHR SWAP1 PUSH1 0x64 SWAP1 REVERT JUMPDEST PUSH1 0x0 DUP3 PUSH1 0x1F DUP4 ADD SLT PUSH2 0x468 JUMPI DUP1 DUP2 REVERT JUMPDEST DUP2 CALLDATALOAD PUSH8 0xFFFFFFFFFFFFFFFF DUP1 DUP3 GT ISZERO PUSH2 0x47F JUMPI DUP3 DUP4 REVERT JUMPDEST PUSH1 0x20 DUP1 DUP4 MUL PUSH1 0x40 MLOAD DUP3 DUP3 DUP3 ADD ADD DUP2 DUP2 LT DUP6 DUP3 GT OR ISZERO PUSH2 0x49C JUMPI DUP7 DUP8 REVERT JUMPDEST PUSH1 0x40 MSTORE DUP5 DUP2 MSTORE SWAP5 POP DUP2 DUP6 ADD SWAP3 POP DUP6 DUP3 ADD DUP2 DUP8 ADD DUP4 ADD DUP9 LT ISZERO PUSH2 0x4BD JUMPI PUSH1 0x0 DUP1 REVERT JUMPDEST PUSH1 0x0 SWAP2 POP JUMPDEST DUP5 DUP3 LT ISZERO PUSH2 0x4E0 JUMPI DUP1 CALLDATALOAD DUP5 MSTORE SWAP3 DUP3 ADD SWAP3 PUSH1 0x1 SWAP2 SWAP1 SWAP2 ADD SWAP1 DUP3 ADD PUSH2 0x4C2 JUMP JUMPDEST POP POP POP POP POP SWAP3 SWAP2 POP POP JUMP JUMPDEST PUSH1 0x0 DUP1 PUSH1 0x40 DUP4 DUP6 SUB SLT ISZERO PUSH2 0x4FD JUMPI DUP2 DUP3 REVERT JUMPDEST DUP3 CALLDATALOAD PUSH8 0xFFFFFFFFFFFFFFFF DUP1 DUP3 GT ISZERO PUSH2 0x514 JUMPI DUP4 DUP5 REVERT JUMPDEST PUSH2 0x520 DUP7 DUP4 DUP8 ADD PUSH2 0x458 JUMP JUMPDEST SWAP4 POP PUSH1 0x20 DUP6 ADD CALLDATALOAD SWAP2 POP DUP1 DUP3 GT ISZERO PUSH2 0x535 JUMPI DUP3 DUP4 REVERT JUMPDEST POP PUSH2 0x542 DUP6 DUP3 DUP7 ADD PUSH2 0x458 JUMP JUMPDEST SWAP2 POP POP SWAP3 POP SWAP3 SWAP1 POP JUMP JUMPDEST PUSH1 0x0 DUP1 PUSH1 0x40 DUP4 DUP6 SUB SLT ISZERO PUSH2 0x55E JUMPI DUP2 DUP3 REVERT JUMPDEST POP POP DUP1 CALLDATALOAD SWAP3 PUSH1 0x20 SWAP1 SWAP2 ADD CALLDATALOAD SWAP2 POP JUMP JUMPDEST PUSH1 0x20 DUP1 DUP3 MSTORE DUP3 MLOAD DUP3 DUP3 ADD DUP2 SWAP1 MSTORE PUSH1 0x0 SWAP2 SWAP1 DUP5 DUP3 ADD SWAP1 PUSH1 0x40 DUP6 ADD SWAP1 DUP5 JUMPDEST DUP2 DUP2 LT ISZERO PUSH2 0x5A5 JUMPI DUP4 MLOAD DUP4 MSTORE SWAP3 DUP5 ADD SWAP3 SWAP2 DUP5 ADD SWAP2 PUSH1 0x1 ADD PUSH2 0x589 JUMP JUMPDEST POP SWAP1 SWAP7 SWAP6 POP POP POP POP POP POP JUMP JUMPDEST SWAP1 DUP2 MSTORE PUSH1 0x20 ADD SWAP1 JUMP INVALID LOG2 PUSH5 0x6970667358 0x22 SLT KECCAK256 0xA5 SWAP5 SWAP3 0x28 SELFDESTRUCT DUP12 PUSH5 0x5EC2ACA50B 0xC1 ADD DUP7 0xFB 0xE2 DUP10 SDIV 0xBB GAS 0xD7 0x2D CODECOPY SWAP9 0xAF PUSH26 0xDA3965CA3164736F6C6343000701003300000000000000000000 "},"methodIdentifiers":{"downscaleDown(uint256,uint256)":"8f26f906","downscaleDownArray(uint256[],uint256[])":"2659f004","downscaleUp(uint256,uint256)":"74cd2c44","downscaleUpArray(uint256[],uint256[])":"4f547360","upscale(uint256,uint256)":"13c809d4","upscaleArray(uint256[],uint256[])":"51d7f8e7"}}}}}