{"contracts/test/LogExpMathMock.sol":{"LogExpMathMock":{"abi":[{"inputs":[{"internalType":"uint256","name":"x","type":"uint256"},{"internalType":"uint256","name":"y","type":"uint256"}],"name":"pow","outputs":[{"internalType":"uint256","name":"","type":"uint256"}],"stateMutability":"pure","type":"function"}],"evm":{"bytecode":{"linkReferences":{},"object":"608060405234801561001057600080fd5b50610c33806100206000396000f3fe608060405234801561001057600080fd5b506004361061002b5760003560e01c80632e4c697f14610030575b600080fd5b6100536004803603604081101561004657600080fd5b5080359060200135610065565b60408051918252519081900360200190f35b6000610071838361007a565b90505b92915050565b6000816100905750670de0b6b3a7640000610074565b8261009d57506000610074565b6100ad60ff84901c15600661019a565b826100d3770bce5086492111aea88f4bb1ca6bcf584181ea8059f765328410600761019a565b826000670c7d713b49da0000831380156100f45750670f43fc2c04ee000083125b1561012b576000610104846101ac565b9050670de0b6b3a764000080820784020583670de0b6b3a764000083050201915050610139565b81610135846102e5565b0290505b670de0b6b3a764000090056101877ffffffffffffffffffffffffffffffffffffffffffffffffdc702bd3a30fc00008212801590610180575068070c1cc73b00c800008213155b600861019a565b61019081610685565b9695505050505050565b816101a8576101a881610b55565b5050565b670de0b6b3a7640000026000806ec097ce7bc90715b34b9f1000000000808401907fffffffffffffffffffffffffffffffffff3f68318436f8ea4cb460f000000000850102816101f857fe5b05905060006ec097ce7bc90715b34b9f100000000082800205905081806ec097ce7bc90715b34b9f100000000081840205915060038205016ec097ce7bc90715b34b9f100000000082840205915060058205016ec097ce7bc90715b34b9f100000000082840205915060078205016ec097ce7bc90715b34b9f100000000082840205915060098205016ec097ce7bc90715b34b9f1000000000828402059150600b8205016ec097ce7bc90715b34b9f1000000000828402059150600d8205016ec097ce7bc90715b34b9f1000000000828402059150600f820581019050806002029450505050505b919050565b6000670de0b6b3a764000082121561032257610318826ec097ce7bc90715b34b9f10000000008161031257fe5b056102e5565b60000390506102e0565b60007e1600ef3172e58d2e933ec884fde10064c63b5372d805e203c0000000000000831261037357770195e54c5dd42177f53a27172fa9ec630262827000000000830592506806f05b59d3b2000000015b73011798004d755d3c8bc8e03204cf44619e00000083126103ab576b1425982cf597cd205cef7380830592506803782dace9d9000000015b606492830292026e01855144814a7ff805980ff008400083126103f3576e01855144814a7ff805980ff008400068056bc75e2d63100000840205925068ad78ebc5ac62000000015b6b02df0ab5a80a22c61ab5a700831261042e576b02df0ab5a80a22c61ab5a70068056bc75e2d6310000084020592506856bc75e2d631000000015b693f1fce3da636ea5cf850831261046557693f1fce3da636ea5cf85068056bc75e2d631000008402059250682b5e3af16b18800000015b690127fa27722cc06cc5e2831261049c57690127fa27722cc06cc5e268056bc75e2d6310000084020592506815af1d78b58c400000015b68280e60114edb805d0383126104d15768280e60114edb805d0368056bc75e2d631000008402059250680ad78ebc5ac6200000015b680ebc5fb4174612111083126104fc57680ebc5fb4174612111068056bc75e2d631000009384020592015b6808f00f760a4b2db55d8312610531576808f00f760a4b2db55d68056bc75e2d6310000084020592506802b5e3af16b1880000015b6806f5f17757889379378312610566576806f5f177578893793768056bc75e2d63100000840205925068015af1d78b58c40000015b6806248f33704b286603831261059a576806248f33704b28660368056bc75e2d63100000840205925067ad78ebc5ac620000015b6805c548670b9510e7ac83126105ce576805c548670b9510e7ac68056bc75e2d6310000084020592506756bc75e2d6310000015b600068056bc75e2d63100000840168056bc75e2d6310000080860302816105f157fe5b059050600068056bc75e2d63100000828002059050818068056bc75e2d63100000818402059150600382050168056bc75e2d63100000828402059150600582050168056bc75e2d63100000828402059150600782050168056bc75e2d63100000828402059150600982050168056bc75e2d63100000828402059150600b820501600202606485820105979650505050505050565b60006106ca7ffffffffffffffffffffffffffffffffffffffffffffffffdc702bd3a30fc000083121580156106c3575068070c1cc73b00c800008313155b600961019a565b60008212156106fe576106df82600003610685565b6ec097ce7bc90715b34b9f1000000000816106f657fe5b0590506102e0565b60006806f05b59d3b2000000831261075457507ffffffffffffffffffffffffffffffffffffffffffffffff90fa4a62c4e00000090910190770195e54c5dd42177f53a27172fa9ec6302628270000000006107a0565b6803782dace9d9000000831261079c57507ffffffffffffffffffffffffffffffffffffffffffffffffc87d2531627000000909101906b1425982cf597cd205cef73806107a0565b5060015b6064929092029168056bc75e2d6310000068ad78ebc5ac620000008412610806577fffffffffffffffffffffffffffffffffffffffffffffff5287143a539e0000009093019268056bc75e2d631000006e01855144814a7ff805980ff008400082020590505b6856bc75e2d6310000008412610858577fffffffffffffffffffffffffffffffffffffffffffffffa9438a1d29cf0000009093019268056bc75e2d631000006b02df0ab5a80a22c61ab5a70082020590505b682b5e3af16b1880000084126108a8577fffffffffffffffffffffffffffffffffffffffffffffffd4a1c50e94e78000009093019268056bc75e2d63100000693f1fce3da636ea5cf85082020590505b6815af1d78b58c40000084126108f8577fffffffffffffffffffffffffffffffffffffffffffffffea50e2874a73c000009093019268056bc75e2d63100000690127fa27722cc06cc5e282020590505b680ad78ebc5ac62000008412610947577ffffffffffffffffffffffffffffffffffffffffffffffff5287143a539e000009093019268056bc75e2d6310000068280e60114edb805d0382020590505b68056bc75e2d631000008412610996577ffffffffffffffffffffffffffffffffffffffffffffffffa9438a1d29cf000009093019268056bc75e2d63100000680ebc5fb4174612111082020590505b6802b5e3af16b188000084126109e5577ffffffffffffffffffffffffffffffffffffffffffffffffd4a1c50e94e7800009093019268056bc75e2d631000006808f00f760a4b2db55d82020590505b68015af1d78b58c400008412610a34577ffffffffffffffffffffffffffffffffffffffffffffffffea50e2874a73c00009093019268056bc75e2d631000006806f5f177578893793782020590505b68056bc75e2d631000008481019085906002908280020505918201919050600368056bc75e2d631000008783020505918201919050600468056bc75e2d631000008783020505918201919050600568056bc75e2d631000008783020505918201919050600668056bc75e2d631000008783020505918201919050600768056bc75e2d631000008783020505918201919050600868056bc75e2d631000008783020505918201919050600968056bc75e2d631000008783020505918201919050600a68056bc75e2d631000008783020505918201919050600b68056bc75e2d631000008783020505918201919050600c68056bc75e2d631000008783020505918201919050606468056bc75e2d63100000848402058502059695505050505050565b610b7f817f42414c0000000000000000000000000000000000000000000000000000000000610b82565b50565b7f08c379a000000000000000000000000000000000000000000000000000000000600090815260206004526007602452600a808404818106603090810160081b958390069590950190829004918206850160101b01602363ffffff0060e086901c160160181b0190930160c81b60445260e882901c90606490fdfea264697066735822122052d1dccccdea59f97a2e3d774bb8798efe81be6c0214fce05d0863681193270464736f6c63430007010033","opcodes":"PUSH1 0x80 PUSH1 0x40 MSTORE CALLVALUE DUP1 ISZERO PUSH2 0x10 JUMPI PUSH1 0x0 DUP1 REVERT JUMPDEST POP PUSH2 0xC33 DUP1 PUSH2 0x20 PUSH1 0x0 CODECOPY PUSH1 0x0 RETURN INVALID PUSH1 0x80 PUSH1 0x40 MSTORE CALLVALUE DUP1 ISZERO PUSH2 0x10 JUMPI PUSH1 0x0 DUP1 REVERT JUMPDEST POP PUSH1 0x4 CALLDATASIZE LT PUSH2 0x2B JUMPI PUSH1 0x0 CALLDATALOAD PUSH1 0xE0 SHR DUP1 PUSH4 0x2E4C697F EQ PUSH2 0x30 JUMPI JUMPDEST PUSH1 0x0 DUP1 REVERT JUMPDEST PUSH2 0x53 PUSH1 0x4 DUP1 CALLDATASIZE SUB PUSH1 0x40 DUP2 LT ISZERO PUSH2 0x46 JUMPI PUSH1 0x0 DUP1 REVERT JUMPDEST POP DUP1 CALLDATALOAD SWAP1 PUSH1 0x20 ADD CALLDATALOAD PUSH2 0x65 JUMP JUMPDEST PUSH1 0x40 DUP1 MLOAD SWAP2 DUP3 MSTORE MLOAD SWAP1 DUP2 SWAP1 SUB PUSH1 0x20 ADD SWAP1 RETURN JUMPDEST PUSH1 0x0 PUSH2 0x71 DUP4 DUP4 PUSH2 0x7A JUMP JUMPDEST SWAP1 POP JUMPDEST SWAP3 SWAP2 POP POP JUMP JUMPDEST PUSH1 0x0 DUP2 PUSH2 0x90 JUMPI POP PUSH8 0xDE0B6B3A7640000 PUSH2 0x74 JUMP JUMPDEST DUP3 PUSH2 0x9D JUMPI POP PUSH1 0x0 PUSH2 0x74 JUMP JUMPDEST PUSH2 0xAD PUSH1 0xFF DUP5 SWAP1 SHR ISZERO PUSH1 0x6 PUSH2 0x19A JUMP JUMPDEST DUP3 PUSH2 0xD3 PUSH24 0xBCE5086492111AEA88F4BB1CA6BCF584181EA8059F76532 DUP5 LT PUSH1 0x7 PUSH2 0x19A JUMP JUMPDEST DUP3 PUSH1 0x0 PUSH8 0xC7D713B49DA0000 DUP4 SGT DUP1 ISZERO PUSH2 0xF4 JUMPI POP PUSH8 0xF43FC2C04EE0000 DUP4 SLT JUMPDEST ISZERO PUSH2 0x12B JUMPI PUSH1 0x0 PUSH2 0x104 DUP5 PUSH2 0x1AC JUMP JUMPDEST SWAP1 POP PUSH8 0xDE0B6B3A7640000 DUP1 DUP3 SMOD DUP5 MUL SDIV DUP4 PUSH8 0xDE0B6B3A7640000 DUP4 SDIV MUL ADD SWAP2 POP POP PUSH2 0x139 JUMP JUMPDEST DUP2 PUSH2 0x135 DUP5 PUSH2 0x2E5 JUMP JUMPDEST MUL SWAP1 POP JUMPDEST PUSH8 0xDE0B6B3A7640000 SWAP1 SDIV PUSH2 0x187 PUSH32 0xFFFFFFFFFFFFFFFFFFFFFFFFFFFFFFFFFFFFFFFFFFFFFFFDC702BD3A30FC0000 DUP3 SLT DUP1 ISZERO SWAP1 PUSH2 0x180 JUMPI POP PUSH9 0x70C1CC73B00C80000 DUP3 SGT ISZERO JUMPDEST PUSH1 0x8 PUSH2 0x19A JUMP JUMPDEST PUSH2 0x190 DUP2 PUSH2 0x685 JUMP JUMPDEST SWAP7 SWAP6 POP POP POP POP POP POP JUMP JUMPDEST DUP2 PUSH2 0x1A8 JUMPI PUSH2 0x1A8 DUP2 PUSH2 0xB55 JUMP JUMPDEST POP POP JUMP JUMPDEST PUSH8 0xDE0B6B3A7640000 MUL PUSH1 0x0 DUP1 PUSH15 0xC097CE7BC90715B34B9F1000000000 DUP1 DUP5 ADD SWAP1 PUSH32 0xFFFFFFFFFFFFFFFFFFFFFFFFFFFFFFFFFF3F68318436F8EA4CB460F000000000 DUP6 ADD MUL DUP2 PUSH2 0x1F8 JUMPI INVALID JUMPDEST SDIV SWAP1 POP PUSH1 0x0 PUSH15 0xC097CE7BC90715B34B9F1000000000 DUP3 DUP1 MUL SDIV SWAP1 POP DUP2 DUP1 PUSH15 0xC097CE7BC90715B34B9F1000000000 DUP2 DUP5 MUL SDIV SWAP2 POP PUSH1 0x3 DUP3 SDIV ADD PUSH15 0xC097CE7BC90715B34B9F1000000000 DUP3 DUP5 MUL SDIV SWAP2 POP PUSH1 0x5 DUP3 SDIV ADD PUSH15 0xC097CE7BC90715B34B9F1000000000 DUP3 DUP5 MUL SDIV SWAP2 POP PUSH1 0x7 DUP3 SDIV ADD PUSH15 0xC097CE7BC90715B34B9F1000000000 DUP3 DUP5 MUL SDIV SWAP2 POP PUSH1 0x9 DUP3 SDIV ADD PUSH15 0xC097CE7BC90715B34B9F1000000000 DUP3 DUP5 MUL SDIV SWAP2 POP PUSH1 0xB DUP3 SDIV ADD PUSH15 0xC097CE7BC90715B34B9F1000000000 DUP3 DUP5 MUL SDIV SWAP2 POP PUSH1 0xD DUP3 SDIV ADD PUSH15 0xC097CE7BC90715B34B9F1000000000 DUP3 DUP5 MUL SDIV SWAP2 POP PUSH1 0xF DUP3 SDIV DUP2 ADD SWAP1 POP DUP1 PUSH1 0x2 MUL SWAP5 POP POP POP POP POP JUMPDEST SWAP2 SWAP1 POP JUMP JUMPDEST PUSH1 0x0 PUSH8 0xDE0B6B3A7640000 DUP3 SLT ISZERO PUSH2 0x322 JUMPI PUSH2 0x318 DUP3 PUSH15 0xC097CE7BC90715B34B9F1000000000 DUP2 PUSH2 0x312 JUMPI INVALID JUMPDEST SDIV PUSH2 0x2E5 JUMP JUMPDEST PUSH1 0x0 SUB SWAP1 POP PUSH2 0x2E0 JUMP JUMPDEST PUSH1 0x0 PUSH31 0x1600EF3172E58D2E933EC884FDE10064C63B5372D805E203C0000000000000 DUP4 SLT PUSH2 0x373 JUMPI PUSH24 0x195E54C5DD42177F53A27172FA9EC630262827000000000 DUP4 SDIV SWAP3 POP PUSH9 0x6F05B59D3B2000000 ADD JUMPDEST PUSH20 0x11798004D755D3C8BC8E03204CF44619E000000 DUP4 SLT PUSH2 0x3AB JUMPI PUSH12 0x1425982CF597CD205CEF7380 DUP4 SDIV SWAP3 POP PUSH9 0x3782DACE9D9000000 ADD JUMPDEST PUSH1 0x64 SWAP3 DUP4 MUL SWAP3 MUL PUSH15 0x1855144814A7FF805980FF0084000 DUP4 SLT PUSH2 0x3F3 JUMPI PUSH15 0x1855144814A7FF805980FF0084000 PUSH9 0x56BC75E2D63100000 DUP5 MUL SDIV SWAP3 POP PUSH9 0xAD78EBC5AC62000000 ADD JUMPDEST PUSH12 0x2DF0AB5A80A22C61AB5A700 DUP4 SLT PUSH2 0x42E JUMPI PUSH12 0x2DF0AB5A80A22C61AB5A700 PUSH9 0x56BC75E2D63100000 DUP5 MUL SDIV SWAP3 POP PUSH9 0x56BC75E2D631000000 ADD JUMPDEST PUSH10 0x3F1FCE3DA636EA5CF850 DUP4 SLT PUSH2 0x465 JUMPI PUSH10 0x3F1FCE3DA636EA5CF850 PUSH9 0x56BC75E2D63100000 DUP5 MUL SDIV SWAP3 POP PUSH9 0x2B5E3AF16B18800000 ADD JUMPDEST PUSH10 0x127FA27722CC06CC5E2 DUP4 SLT PUSH2 0x49C JUMPI PUSH10 0x127FA27722CC06CC5E2 PUSH9 0x56BC75E2D63100000 DUP5 MUL SDIV SWAP3 POP PUSH9 0x15AF1D78B58C400000 ADD JUMPDEST PUSH9 0x280E60114EDB805D03 DUP4 SLT PUSH2 0x4D1 JUMPI PUSH9 0x280E60114EDB805D03 PUSH9 0x56BC75E2D63100000 DUP5 MUL SDIV SWAP3 POP PUSH9 0xAD78EBC5AC6200000 ADD JUMPDEST PUSH9 0xEBC5FB41746121110 DUP4 SLT PUSH2 0x4FC JUMPI PUSH9 0xEBC5FB41746121110 PUSH9 0x56BC75E2D63100000 SWAP4 DUP5 MUL SDIV SWAP3 ADD JUMPDEST PUSH9 0x8F00F760A4B2DB55D DUP4 SLT PUSH2 0x531 JUMPI PUSH9 0x8F00F760A4B2DB55D PUSH9 0x56BC75E2D63100000 DUP5 MUL SDIV SWAP3 POP PUSH9 0x2B5E3AF16B1880000 ADD JUMPDEST PUSH9 0x6F5F1775788937937 DUP4 SLT PUSH2 0x566 JUMPI PUSH9 0x6F5F1775788937937 PUSH9 0x56BC75E2D63100000 DUP5 MUL SDIV SWAP3 POP PUSH9 0x15AF1D78B58C40000 ADD JUMPDEST PUSH9 0x6248F33704B286603 DUP4 SLT PUSH2 0x59A JUMPI PUSH9 0x6248F33704B286603 PUSH9 0x56BC75E2D63100000 DUP5 MUL SDIV SWAP3 POP PUSH8 0xAD78EBC5AC620000 ADD JUMPDEST PUSH9 0x5C548670B9510E7AC DUP4 SLT PUSH2 0x5CE JUMPI PUSH9 0x5C548670B9510E7AC PUSH9 0x56BC75E2D63100000 DUP5 MUL SDIV SWAP3 POP PUSH8 0x56BC75E2D6310000 ADD JUMPDEST PUSH1 0x0 PUSH9 0x56BC75E2D63100000 DUP5 ADD PUSH9 0x56BC75E2D63100000 DUP1 DUP7 SUB MUL DUP2 PUSH2 0x5F1 JUMPI INVALID JUMPDEST SDIV SWAP1 POP PUSH1 0x0 PUSH9 0x56BC75E2D63100000 DUP3 DUP1 MUL SDIV SWAP1 POP DUP2 DUP1 PUSH9 0x56BC75E2D63100000 DUP2 DUP5 MUL SDIV SWAP2 POP PUSH1 0x3 DUP3 SDIV ADD PUSH9 0x56BC75E2D63100000 DUP3 DUP5 MUL SDIV SWAP2 POP PUSH1 0x5 DUP3 SDIV ADD PUSH9 0x56BC75E2D63100000 DUP3 DUP5 MUL SDIV SWAP2 POP PUSH1 0x7 DUP3 SDIV ADD PUSH9 0x56BC75E2D63100000 DUP3 DUP5 MUL SDIV SWAP2 POP PUSH1 0x9 DUP3 SDIV ADD PUSH9 0x56BC75E2D63100000 DUP3 DUP5 MUL SDIV SWAP2 POP PUSH1 0xB DUP3 SDIV ADD PUSH1 0x2 MUL PUSH1 0x64 DUP6 DUP3 ADD SDIV SWAP8 SWAP7 POP POP POP POP POP POP POP JUMP JUMPDEST PUSH1 0x0 PUSH2 0x6CA PUSH32 0xFFFFFFFFFFFFFFFFFFFFFFFFFFFFFFFFFFFFFFFFFFFFFFFDC702BD3A30FC0000 DUP4 SLT ISZERO DUP1 ISZERO PUSH2 0x6C3 JUMPI POP PUSH9 0x70C1CC73B00C80000 DUP4 SGT ISZERO JUMPDEST PUSH1 0x9 PUSH2 0x19A JUMP JUMPDEST PUSH1 0x0 DUP3 SLT ISZERO PUSH2 0x6FE JUMPI PUSH2 0x6DF DUP3 PUSH1 0x0 SUB PUSH2 0x685 JUMP JUMPDEST PUSH15 0xC097CE7BC90715B34B9F1000000000 DUP2 PUSH2 0x6F6 JUMPI INVALID JUMPDEST SDIV SWAP1 POP PUSH2 0x2E0 JUMP JUMPDEST PUSH1 0x0 PUSH9 0x6F05B59D3B2000000 DUP4 SLT PUSH2 0x754 JUMPI POP PUSH32 0xFFFFFFFFFFFFFFFFFFFFFFFFFFFFFFFFFFFFFFFFFFFFFFF90FA4A62C4E000000 SWAP1 SWAP2 ADD SWAP1 PUSH24 0x195E54C5DD42177F53A27172FA9EC630262827000000000 PUSH2 0x7A0 JUMP JUMPDEST PUSH9 0x3782DACE9D9000000 DUP4 SLT PUSH2 0x79C JUMPI POP PUSH32 0xFFFFFFFFFFFFFFFFFFFFFFFFFFFFFFFFFFFFFFFFFFFFFFFC87D2531627000000 SWAP1 SWAP2 ADD SWAP1 PUSH12 0x1425982CF597CD205CEF7380 PUSH2 0x7A0 JUMP JUMPDEST POP PUSH1 0x1 JUMPDEST PUSH1 0x64 SWAP3 SWAP1 SWAP3 MUL SWAP2 PUSH9 0x56BC75E2D63100000 PUSH9 0xAD78EBC5AC62000000 DUP5 SLT PUSH2 0x806 JUMPI PUSH32 0xFFFFFFFFFFFFFFFFFFFFFFFFFFFFFFFFFFFFFFFFFFFFFF5287143A539E000000 SWAP1 SWAP4 ADD SWAP3 PUSH9 0x56BC75E2D63100000 PUSH15 0x1855144814A7FF805980FF0084000 DUP3 MUL SDIV SWAP1 POP JUMPDEST PUSH9 0x56BC75E2D631000000 DUP5 SLT PUSH2 0x858 JUMPI PUSH32 0xFFFFFFFFFFFFFFFFFFFFFFFFFFFFFFFFFFFFFFFFFFFFFFA9438A1D29CF000000 SWAP1 SWAP4 ADD SWAP3 PUSH9 0x56BC75E2D63100000 PUSH12 0x2DF0AB5A80A22C61AB5A700 DUP3 MUL SDIV SWAP1 POP JUMPDEST PUSH9 0x2B5E3AF16B18800000 DUP5 SLT PUSH2 0x8A8 JUMPI PUSH32 0xFFFFFFFFFFFFFFFFFFFFFFFFFFFFFFFFFFFFFFFFFFFFFFD4A1C50E94E7800000 SWAP1 SWAP4 ADD SWAP3 PUSH9 0x56BC75E2D63100000 PUSH10 0x3F1FCE3DA636EA5CF850 DUP3 MUL SDIV SWAP1 POP JUMPDEST PUSH9 0x15AF1D78B58C400000 DUP5 SLT PUSH2 0x8F8 JUMPI PUSH32 0xFFFFFFFFFFFFFFFFFFFFFFFFFFFFFFFFFFFFFFFFFFFFFFEA50E2874A73C00000 SWAP1 SWAP4 ADD SWAP3 PUSH9 0x56BC75E2D63100000 PUSH10 0x127FA27722CC06CC5E2 DUP3 MUL SDIV SWAP1 POP JUMPDEST PUSH9 0xAD78EBC5AC6200000 DUP5 SLT PUSH2 0x947 JUMPI PUSH32 0xFFFFFFFFFFFFFFFFFFFFFFFFFFFFFFFFFFFFFFFFFFFFFFF5287143A539E00000 SWAP1 SWAP4 ADD SWAP3 PUSH9 0x56BC75E2D63100000 PUSH9 0x280E60114EDB805D03 DUP3 MUL SDIV SWAP1 POP JUMPDEST PUSH9 0x56BC75E2D63100000 DUP5 SLT PUSH2 0x996 JUMPI PUSH32 0xFFFFFFFFFFFFFFFFFFFFFFFFFFFFFFFFFFFFFFFFFFFFFFFA9438A1D29CF00000 SWAP1 SWAP4 ADD SWAP3 PUSH9 0x56BC75E2D63100000 PUSH9 0xEBC5FB41746121110 DUP3 MUL SDIV SWAP1 POP JUMPDEST PUSH9 0x2B5E3AF16B1880000 DUP5 SLT PUSH2 0x9E5 JUMPI PUSH32 0xFFFFFFFFFFFFFFFFFFFFFFFFFFFFFFFFFFFFFFFFFFFFFFFD4A1C50E94E780000 SWAP1 SWAP4 ADD SWAP3 PUSH9 0x56BC75E2D63100000 PUSH9 0x8F00F760A4B2DB55D DUP3 MUL SDIV SWAP1 POP JUMPDEST PUSH9 0x15AF1D78B58C40000 DUP5 SLT PUSH2 0xA34 JUMPI PUSH32 0xFFFFFFFFFFFFFFFFFFFFFFFFFFFFFFFFFFFFFFFFFFFFFFFEA50E2874A73C0000 SWAP1 SWAP4 ADD SWAP3 PUSH9 0x56BC75E2D63100000 PUSH9 0x6F5F1775788937937 DUP3 MUL SDIV SWAP1 POP JUMPDEST PUSH9 0x56BC75E2D63100000 DUP5 DUP2 ADD SWAP1 DUP6 SWAP1 PUSH1 0x2 SWAP1 DUP3 DUP1 MUL SDIV SDIV SWAP2 DUP3 ADD SWAP2 SWAP1 POP PUSH1 0x3 PUSH9 0x56BC75E2D63100000 DUP8 DUP4 MUL SDIV SDIV SWAP2 DUP3 ADD SWAP2 SWAP1 POP PUSH1 0x4 PUSH9 0x56BC75E2D63100000 DUP8 DUP4 MUL SDIV SDIV SWAP2 DUP3 ADD SWAP2 SWAP1 POP PUSH1 0x5 PUSH9 0x56BC75E2D63100000 DUP8 DUP4 MUL SDIV SDIV SWAP2 DUP3 ADD SWAP2 SWAP1 POP PUSH1 0x6 PUSH9 0x56BC75E2D63100000 DUP8 DUP4 MUL SDIV SDIV SWAP2 DUP3 ADD SWAP2 SWAP1 POP PUSH1 0x7 PUSH9 0x56BC75E2D63100000 DUP8 DUP4 MUL SDIV SDIV SWAP2 DUP3 ADD SWAP2 SWAP1 POP PUSH1 0x8 PUSH9 0x56BC75E2D63100000 DUP8 DUP4 MUL SDIV SDIV SWAP2 DUP3 ADD SWAP2 SWAP1 POP PUSH1 0x9 PUSH9 0x56BC75E2D63100000 DUP8 DUP4 MUL SDIV SDIV SWAP2 DUP3 ADD SWAP2 SWAP1 POP PUSH1 0xA PUSH9 0x56BC75E2D63100000 DUP8 DUP4 MUL SDIV SDIV SWAP2 DUP3 ADD SWAP2 SWAP1 POP PUSH1 0xB PUSH9 0x56BC75E2D63100000 DUP8 DUP4 MUL SDIV SDIV SWAP2 DUP3 ADD SWAP2 SWAP1 POP PUSH1 0xC PUSH9 0x56BC75E2D63100000 DUP8 DUP4 MUL SDIV SDIV SWAP2 DUP3 ADD SWAP2 SWAP1 POP PUSH1 0x64 PUSH9 0x56BC75E2D63100000 DUP5 DUP5 MUL SDIV DUP6 MUL SDIV SWAP7 SWAP6 POP POP POP POP POP POP JUMP JUMPDEST PUSH2 0xB7F DUP2 PUSH32 0x42414C0000000000000000000000000000000000000000000000000000000000 PUSH2 0xB82 JUMP JUMPDEST POP JUMP JUMPDEST PUSH32 0x8C379A000000000000000000000000000000000000000000000000000000000 PUSH1 0x0 SWAP1 DUP2 MSTORE PUSH1 0x20 PUSH1 0x4 MSTORE PUSH1 0x7 PUSH1 0x24 MSTORE PUSH1 0xA DUP1 DUP5 DIV DUP2 DUP2 MOD PUSH1 0x30 SWAP1 DUP2 ADD PUSH1 0x8 SHL SWAP6 DUP4 SWAP1 MOD SWAP6 SWAP1 SWAP6 ADD SWAP1 DUP3 SWAP1 DIV SWAP2 DUP3 MOD DUP6 ADD PUSH1 0x10 SHL ADD PUSH1 0x23 PUSH4 0xFFFFFF00 PUSH1 0xE0 DUP7 SWAP1 SHR AND ADD PUSH1 0x18 SHL ADD SWAP1 SWAP4 ADD PUSH1 0xC8 SHL PUSH1 0x44 MSTORE PUSH1 0xE8 DUP3 SWAP1 SHR SWAP1 PUSH1 0x64 SWAP1 REVERT INVALID LOG2 PUSH5 0x6970667358 0x22 SLT KECCAK256 MSTORE 0xD1 0xDC 0xCC 0xCD 0xEA MSIZE 0xF9 PUSH27 0x2E3D774BB8798EFE81BE6C0214FCE05D0863681193270464736F6C PUSH4 0x43000701 STOP CALLER "},"methodIdentifiers":{"pow(uint256,uint256)":"2e4c697f"}}}}}