{"contracts/test/MockWordCodec.sol":{"MockWordCodec":{"abi":[{"inputs":[{"internalType":"bytes32","name":"word","type":"bytes32"},{"internalType":"uint256","name":"offset","type":"uint256"},{"internalType":"uint256","name":"bitLength","type":"uint256"}],"name":"clearWordAtPosition","outputs":[{"internalType":"bytes32","name":"","type":"bytes32"}],"stateMutability":"pure","type":"function"},{"inputs":[{"internalType":"bytes32","name":"value","type":"bytes32"},{"internalType":"uint256","name":"offset","type":"uint256"},{"internalType":"uint256","name":"bitLength","type":"uint256"}],"name":"decodeInt","outputs":[{"internalType":"int256","name":"","type":"int256"}],"stateMutability":"pure","type":"function"},{"inputs":[{"internalType":"bytes32","name":"value","type":"bytes32"},{"internalType":"uint256","name":"offset","type":"uint256"},{"internalType":"uint256","name":"bitLength","type":"uint256"}],"name":"decodeUint","outputs":[{"internalType":"uint256","name":"","type":"uint256"}],"stateMutability":"pure","type":"function"},{"inputs":[{"internalType":"int256","name":"value","type":"int256"},{"internalType":"uint256","name":"offset","type":"uint256"},{"internalType":"uint256","name":"bitLength","type":"uint256"}],"name":"encodeInt","outputs":[{"internalType":"bytes32","name":"","type":"bytes32"}],"stateMutability":"pure","type":"function"},{"inputs":[{"internalType":"uint256","name":"value","type":"uint256"},{"internalType":"uint256","name":"offset","type":"uint256"},{"internalType":"uint256","name":"bitLength","type":"uint256"}],"name":"encodeUint","outputs":[{"internalType":"bytes32","name":"","type":"bytes32"}],"stateMutability":"pure","type":"function"},{"inputs":[{"internalType":"bytes32","name":"word","type":"bytes32"},{"internalType":"int256","name":"value","type":"int256"},{"internalType":"uint256","name":"offset","type":"uint256"},{"internalType":"uint256","name":"bitLength","type":"uint256"}],"name":"insertInt","outputs":[{"internalType":"bytes32","name":"","type":"bytes32"}],"stateMutability":"pure","type":"function"},{"inputs":[{"internalType":"bytes32","name":"word","type":"bytes32"},{"internalType":"uint256","name":"value","type":"uint256"},{"internalType":"uint256","name":"offset","type":"uint256"},{"internalType":"uint256","name":"bitLength","type":"uint256"}],"name":"insertUint","outputs":[{"internalType":"bytes32","name":"","type":"bytes32"}],"stateMutability":"pure","type":"function"},{"inputs":[{"internalType":"bytes32","name":"oldPoolState","type":"bytes32"},{"internalType":"bytes32","name":"newPoolState","type":"bytes32"},{"internalType":"uint256","name":"offset","type":"uint256"},{"internalType":"uint256","name":"bitLength","type":"uint256"}],"name":"isOtherStateUnchanged","outputs":[{"internalType":"bool","name":"","type":"bool"}],"stateMutability":"pure","type":"function"}],"evm":{"bytecode":{"linkReferences":{},"object":"608060405234801561001057600080fd5b5061052e806100206000396000f3fe608060405234801561001057600080fd5b50600436106100885760003560e01c80634efc6d6f1161005b5780634efc6d6f146101495780639223250a14610172578063a427ee1e1461019b578063ab2d3f47146101ca57610088565b80631bbdab7f1461008d5780632393cb9e146100c857806337b1cd81146100f15780634cf60a711461011a575b600080fd5b6100b6600480360360608110156100a357600080fd5b508035906020810135906040013561020d565b60408051918252519081900360200190f35b6100b6600480360360608110156100de57600080fd5b5080359060208101359060400135610222565b6100b66004803603606081101561010757600080fd5b508035906020810135906040013561022f565b6100b66004803603608081101561013057600080fd5b508035906020810135906040810135906060013561023c565b6100b66004803603606081101561015f57600080fd5b5080359060208101359060400135610253565b6100b66004803603606081101561018857600080fd5b5080359060208101359060400135610260565b6100b6600480360360808110156101b157600080fd5b508035906020810135906040810135906060013561026d565b6101f9600480360360808110156101e057600080fd5b508035906020810135906040810135906060013561027b565b604080519115158252519081900360200190f35b600061021a848484610289565b949350505050565b600061021a848484610298565b600061021a8484846102bb565b600061024a858585856102da565b95945050505050565b600061021a8484846102fd565b600061021a84848461030c565b600061024a8585858561031f565b600061024a85858585610347565b6001901b6000190191901c1690565b600160001980830182901b81019490931c911b9091019081169182119019021790565b60006102c8848484610372565b506001901b6000190191909116901b90565b60006102e78484846103ee565b506001901b60001901811b1992909216911b1790565b6001901b60001901901b191690565b60006103198484846103ee565b50501b90565b600061032c848484610372565b50600019600190911b01918216811b91901b19919091161790565b6000806103558685856102fd565b905060006103648686866102fd565b919091149695505050505050565b61038161010083106064610426565b6103aa600182101580156103a3575061039f60ff8461010003610438565b8211155b6064610426565b600083126103cb576103c6600019820184901d156101b4610426565b6103e9565b6103e9600182036103de85600101610444565b901c156101b4610426565b505050565b6103fd61010083106064610426565b61041b600182101580156103a3575061039f60ff8461010003610438565b6103e983821c156101b45b816104345761043481610450565b5050565b80820390821102900390565b60ff81901d9081180390565b61047a817f42414c000000000000000000000000000000000000000000000000000000000061047d565b50565b7f08c379a000000000000000000000000000000000000000000000000000000000600090815260206004526007602452600a808404818106603090810160081b958390069590950190829004918206850160101b01602363ffffff0060e086901c160160181b0190930160c81b60445260e882901c90606490fdfea2646970667358221220d83882eca54ab0e8de4b45764380a8a21de43b4fd37e8e4fc0694603ad22ac6c64736f6c63430007010033","opcodes":"PUSH1 0x80 PUSH1 0x40 MSTORE CALLVALUE DUP1 ISZERO PUSH2 0x10 JUMPI PUSH1 0x0 DUP1 REVERT JUMPDEST POP PUSH2 0x52E DUP1 PUSH2 0x20 PUSH1 0x0 CODECOPY PUSH1 0x0 RETURN INVALID PUSH1 0x80 PUSH1 0x40 MSTORE CALLVALUE DUP1 ISZERO PUSH2 0x10 JUMPI PUSH1 0x0 DUP1 REVERT JUMPDEST POP PUSH1 0x4 CALLDATASIZE LT PUSH2 0x88 JUMPI PUSH1 0x0 CALLDATALOAD PUSH1 0xE0 SHR DUP1 PUSH4 0x4EFC6D6F GT PUSH2 0x5B JUMPI DUP1 PUSH4 0x4EFC6D6F EQ PUSH2 0x149 JUMPI DUP1 PUSH4 0x9223250A EQ PUSH2 0x172 JUMPI DUP1 PUSH4 0xA427EE1E EQ PUSH2 0x19B JUMPI DUP1 PUSH4 0xAB2D3F47 EQ PUSH2 0x1CA JUMPI PUSH2 0x88 JUMP JUMPDEST DUP1 PUSH4 0x1BBDAB7F EQ PUSH2 0x8D JUMPI DUP1 PUSH4 0x2393CB9E EQ PUSH2 0xC8 JUMPI DUP1 PUSH4 0x37B1CD81 EQ PUSH2 0xF1 JUMPI DUP1 PUSH4 0x4CF60A71 EQ PUSH2 0x11A JUMPI JUMPDEST PUSH1 0x0 DUP1 REVERT JUMPDEST PUSH2 0xB6 PUSH1 0x4 DUP1 CALLDATASIZE SUB PUSH1 0x60 DUP2 LT ISZERO PUSH2 0xA3 JUMPI PUSH1 0x0 DUP1 REVERT JUMPDEST POP DUP1 CALLDATALOAD SWAP1 PUSH1 0x20 DUP2 ADD CALLDATALOAD SWAP1 PUSH1 0x40 ADD CALLDATALOAD PUSH2 0x20D JUMP JUMPDEST PUSH1 0x40 DUP1 MLOAD SWAP2 DUP3 MSTORE MLOAD SWAP1 DUP2 SWAP1 SUB PUSH1 0x20 ADD SWAP1 RETURN JUMPDEST PUSH2 0xB6 PUSH1 0x4 DUP1 CALLDATASIZE SUB PUSH1 0x60 DUP2 LT ISZERO PUSH2 0xDE JUMPI PUSH1 0x0 DUP1 REVERT JUMPDEST POP DUP1 CALLDATALOAD SWAP1 PUSH1 0x20 DUP2 ADD CALLDATALOAD SWAP1 PUSH1 0x40 ADD CALLDATALOAD PUSH2 0x222 JUMP JUMPDEST PUSH2 0xB6 PUSH1 0x4 DUP1 CALLDATASIZE SUB PUSH1 0x60 DUP2 LT ISZERO PUSH2 0x107 JUMPI PUSH1 0x0 DUP1 REVERT JUMPDEST POP DUP1 CALLDATALOAD SWAP1 PUSH1 0x20 DUP2 ADD CALLDATALOAD SWAP1 PUSH1 0x40 ADD CALLDATALOAD PUSH2 0x22F JUMP JUMPDEST PUSH2 0xB6 PUSH1 0x4 DUP1 CALLDATASIZE SUB PUSH1 0x80 DUP2 LT ISZERO PUSH2 0x130 JUMPI PUSH1 0x0 DUP1 REVERT JUMPDEST POP DUP1 CALLDATALOAD SWAP1 PUSH1 0x20 DUP2 ADD CALLDATALOAD SWAP1 PUSH1 0x40 DUP2 ADD CALLDATALOAD SWAP1 PUSH1 0x60 ADD CALLDATALOAD PUSH2 0x23C JUMP JUMPDEST PUSH2 0xB6 PUSH1 0x4 DUP1 CALLDATASIZE SUB PUSH1 0x60 DUP2 LT ISZERO PUSH2 0x15F JUMPI PUSH1 0x0 DUP1 REVERT JUMPDEST POP DUP1 CALLDATALOAD SWAP1 PUSH1 0x20 DUP2 ADD CALLDATALOAD SWAP1 PUSH1 0x40 ADD CALLDATALOAD PUSH2 0x253 JUMP JUMPDEST PUSH2 0xB6 PUSH1 0x4 DUP1 CALLDATASIZE SUB PUSH1 0x60 DUP2 LT ISZERO PUSH2 0x188 JUMPI PUSH1 0x0 DUP1 REVERT JUMPDEST POP DUP1 CALLDATALOAD SWAP1 PUSH1 0x20 DUP2 ADD CALLDATALOAD SWAP1 PUSH1 0x40 ADD CALLDATALOAD PUSH2 0x260 JUMP JUMPDEST PUSH2 0xB6 PUSH1 0x4 DUP1 CALLDATASIZE SUB PUSH1 0x80 DUP2 LT ISZERO PUSH2 0x1B1 JUMPI PUSH1 0x0 DUP1 REVERT JUMPDEST POP DUP1 CALLDATALOAD SWAP1 PUSH1 0x20 DUP2 ADD CALLDATALOAD SWAP1 PUSH1 0x40 DUP2 ADD CALLDATALOAD SWAP1 PUSH1 0x60 ADD CALLDATALOAD PUSH2 0x26D JUMP JUMPDEST PUSH2 0x1F9 PUSH1 0x4 DUP1 CALLDATASIZE SUB PUSH1 0x80 DUP2 LT ISZERO PUSH2 0x1E0 JUMPI PUSH1 0x0 DUP1 REVERT JUMPDEST POP DUP1 CALLDATALOAD SWAP1 PUSH1 0x20 DUP2 ADD CALLDATALOAD SWAP1 PUSH1 0x40 DUP2 ADD CALLDATALOAD SWAP1 PUSH1 0x60 ADD CALLDATALOAD PUSH2 0x27B JUMP JUMPDEST PUSH1 0x40 DUP1 MLOAD SWAP2 ISZERO ISZERO DUP3 MSTORE MLOAD SWAP1 DUP2 SWAP1 SUB PUSH1 0x20 ADD SWAP1 RETURN JUMPDEST PUSH1 0x0 PUSH2 0x21A DUP5 DUP5 DUP5 PUSH2 0x289 JUMP JUMPDEST SWAP5 SWAP4 POP POP POP POP JUMP JUMPDEST PUSH1 0x0 PUSH2 0x21A DUP5 DUP5 DUP5 PUSH2 0x298 JUMP JUMPDEST PUSH1 0x0 PUSH2 0x21A DUP5 DUP5 DUP5 PUSH2 0x2BB JUMP JUMPDEST PUSH1 0x0 PUSH2 0x24A DUP6 DUP6 DUP6 DUP6 PUSH2 0x2DA JUMP JUMPDEST SWAP6 SWAP5 POP POP POP POP POP JUMP JUMPDEST PUSH1 0x0 PUSH2 0x21A DUP5 DUP5 DUP5 PUSH2 0x2FD JUMP JUMPDEST PUSH1 0x0 PUSH2 0x21A DUP5 DUP5 DUP5 PUSH2 0x30C JUMP JUMPDEST PUSH1 0x0 PUSH2 0x24A DUP6 DUP6 DUP6 DUP6 PUSH2 0x31F JUMP JUMPDEST PUSH1 0x0 PUSH2 0x24A DUP6 DUP6 DUP6 DUP6 PUSH2 0x347 JUMP JUMPDEST PUSH1 0x1 SWAP1 SHL PUSH1 0x0 NOT ADD SWAP2 SWAP1 SHR AND SWAP1 JUMP JUMPDEST PUSH1 0x1 PUSH1 0x0 NOT DUP1 DUP4 ADD DUP3 SWAP1 SHL DUP2 ADD SWAP5 SWAP1 SWAP4 SHR SWAP2 SHL SWAP1 SWAP2 ADD SWAP1 DUP2 AND SWAP2 DUP3 GT SWAP1 NOT MUL OR SWAP1 JUMP JUMPDEST PUSH1 0x0 PUSH2 0x2C8 DUP5 DUP5 DUP5 PUSH2 0x372 JUMP JUMPDEST POP PUSH1 0x1 SWAP1 SHL PUSH1 0x0 NOT ADD SWAP2 SWAP1 SWAP2 AND SWAP1 SHL SWAP1 JUMP JUMPDEST PUSH1 0x0 PUSH2 0x2E7 DUP5 DUP5 DUP5 PUSH2 0x3EE JUMP JUMPDEST POP PUSH1 0x1 SWAP1 SHL PUSH1 0x0 NOT ADD DUP2 SHL NOT SWAP3 SWAP1 SWAP3 AND SWAP2 SHL OR SWAP1 JUMP JUMPDEST PUSH1 0x1 SWAP1 SHL PUSH1 0x0 NOT ADD SWAP1 SHL NOT AND SWAP1 JUMP JUMPDEST PUSH1 0x0 PUSH2 0x319 DUP5 DUP5 DUP5 PUSH2 0x3EE JUMP JUMPDEST POP POP SHL SWAP1 JUMP JUMPDEST PUSH1 0x0 PUSH2 0x32C DUP5 DUP5 DUP5 PUSH2 0x372 JUMP JUMPDEST POP PUSH1 0x0 NOT PUSH1 0x1 SWAP1 SWAP2 SHL ADD SWAP2 DUP3 AND DUP2 SHL SWAP2 SWAP1 SHL NOT SWAP2 SWAP1 SWAP2 AND OR SWAP1 JUMP JUMPDEST PUSH1 0x0 DUP1 PUSH2 0x355 DUP7 DUP6 DUP6 PUSH2 0x2FD JUMP JUMPDEST SWAP1 POP PUSH1 0x0 PUSH2 0x364 DUP7 DUP7 DUP7 PUSH2 0x2FD JUMP JUMPDEST SWAP2 SWAP1 SWAP2 EQ SWAP7 SWAP6 POP POP POP POP POP POP JUMP JUMPDEST PUSH2 0x381 PUSH2 0x100 DUP4 LT PUSH1 0x64 PUSH2 0x426 JUMP JUMPDEST PUSH2 0x3AA PUSH1 0x1 DUP3 LT ISZERO DUP1 ISZERO PUSH2 0x3A3 JUMPI POP PUSH2 0x39F PUSH1 0xFF DUP5 PUSH2 0x100 SUB PUSH2 0x438 JUMP JUMPDEST DUP3 GT ISZERO JUMPDEST PUSH1 0x64 PUSH2 0x426 JUMP JUMPDEST PUSH1 0x0 DUP4 SLT PUSH2 0x3CB JUMPI PUSH2 0x3C6 PUSH1 0x0 NOT DUP3 ADD DUP5 SWAP1 SAR ISZERO PUSH2 0x1B4 PUSH2 0x426 JUMP JUMPDEST PUSH2 0x3E9 JUMP JUMPDEST PUSH2 0x3E9 PUSH1 0x1 DUP3 SUB PUSH2 0x3DE DUP6 PUSH1 0x1 ADD PUSH2 0x444 JUMP JUMPDEST SWAP1 SHR ISZERO PUSH2 0x1B4 PUSH2 0x426 JUMP JUMPDEST POP POP POP JUMP JUMPDEST PUSH2 0x3FD PUSH2 0x100 DUP4 LT PUSH1 0x64 PUSH2 0x426 JUMP JUMPDEST PUSH2 0x41B PUSH1 0x1 DUP3 LT ISZERO DUP1 ISZERO PUSH2 0x3A3 JUMPI POP PUSH2 0x39F PUSH1 0xFF DUP5 PUSH2 0x100 SUB PUSH2 0x438 JUMP JUMPDEST PUSH2 0x3E9 DUP4 DUP3 SHR ISZERO PUSH2 0x1B4 JUMPDEST DUP2 PUSH2 0x434 JUMPI PUSH2 0x434 DUP2 PUSH2 0x450 JUMP JUMPDEST POP POP JUMP JUMPDEST DUP1 DUP3 SUB SWAP1 DUP3 GT MUL SWAP1 SUB SWAP1 JUMP JUMPDEST PUSH1 0xFF DUP2 SWAP1 SAR SWAP1 DUP2 XOR SUB SWAP1 JUMP JUMPDEST PUSH2 0x47A DUP2 PUSH32 0x42414C0000000000000000000000000000000000000000000000000000000000 PUSH2 0x47D JUMP JUMPDEST POP JUMP JUMPDEST PUSH32 0x8C379A000000000000000000000000000000000000000000000000000000000 PUSH1 0x0 SWAP1 DUP2 MSTORE PUSH1 0x20 PUSH1 0x4 MSTORE PUSH1 0x7 PUSH1 0x24 MSTORE PUSH1 0xA DUP1 DUP5 DIV DUP2 DUP2 MOD PUSH1 0x30 SWAP1 DUP2 ADD PUSH1 0x8 SHL SWAP6 DUP4 SWAP1 MOD SWAP6 SWAP1 SWAP6 ADD SWAP1 DUP3 SWAP1 DIV SWAP2 DUP3 MOD DUP6 ADD PUSH1 0x10 SHL ADD PUSH1 0x23 PUSH4 0xFFFFFF00 PUSH1 0xE0 DUP7 SWAP1 SHR AND ADD PUSH1 0x18 SHL ADD SWAP1 SWAP4 ADD PUSH1 0xC8 SHL PUSH1 0x44 MSTORE PUSH1 0xE8 DUP3 SWAP1 SHR SWAP1 PUSH1 0x64 SWAP1 REVERT INVALID LOG2 PUSH5 0x6970667358 0x22 SLT KECCAK256 0xD8 CODESIZE DUP3 0xEC 0xA5 0x4A 0xB0 0xE8 0xDE 0x4B GASLIMIT PUSH23 0x4380A8A21DE43B4FD37E8E4FC0694603AD22AC6C64736F PUSH13 0x63430007010033000000000000 "},"methodIdentifiers":{"clearWordAtPosition(bytes32,uint256,uint256)":"4efc6d6f","decodeInt(bytes32,uint256,uint256)":"2393cb9e","decodeUint(bytes32,uint256,uint256)":"1bbdab7f","encodeInt(int256,uint256,uint256)":"37b1cd81","encodeUint(uint256,uint256,uint256)":"9223250a","insertInt(bytes32,int256,uint256,uint256)":"a427ee1e","insertUint(bytes32,uint256,uint256,uint256)":"4cf60a71","isOtherStateUnchanged(bytes32,bytes32,uint256,uint256)":"ab2d3f47"}}}}}