{"contracts/test/BreakableERC20Mock.sol":{"BreakableERC20Mock":{"abi":[{"inputs":[{"internalType":"string","name":"name","type":"string"},{"internalType":"string","name":"symbol","type":"string"}],"stateMutability":"nonpayable","type":"constructor"},{"anonymous":false,"inputs":[{"indexed":true,"internalType":"address","name":"owner","type":"address"},{"indexed":true,"internalType":"address","name":"spender","type":"address"},{"indexed":false,"internalType":"uint256","name":"value","type":"uint256"}],"name":"Approval","type":"event"},{"anonymous":false,"inputs":[{"indexed":true,"internalType":"address","name":"from","type":"address"},{"indexed":true,"internalType":"address","name":"to","type":"address"},{"indexed":false,"internalType":"uint256","name":"value","type":"uint256"}],"name":"Transfer","type":"event"},{"inputs":[{"internalType":"address","name":"owner","type":"address"},{"internalType":"address","name":"spender","type":"address"}],"name":"allowance","outputs":[{"internalType":"uint256","name":"","type":"uint256"}],"stateMutability":"view","type":"function"},{"inputs":[{"internalType":"address","name":"spender","type":"address"},{"internalType":"uint256","name":"amount","type":"uint256"}],"name":"approve","outputs":[{"internalType":"bool","name":"","type":"bool"}],"stateMutability":"nonpayable","type":"function"},{"inputs":[{"internalType":"address","name":"account","type":"address"}],"name":"balanceOf","outputs":[{"internalType":"uint256","name":"","type":"uint256"}],"stateMutability":"view","type":"function"},{"inputs":[],"name":"decimals","outputs":[{"internalType":"uint8","name":"","type":"uint8"}],"stateMutability":"view","type":"function"},{"inputs":[{"internalType":"address","name":"spender","type":"address"},{"internalType":"uint256","name":"subtractedValue","type":"uint256"}],"name":"decreaseAllowance","outputs":[{"internalType":"bool","name":"","type":"bool"}],"stateMutability":"nonpayable","type":"function"},{"inputs":[{"internalType":"address","name":"spender","type":"address"},{"internalType":"uint256","name":"addedValue","type":"uint256"}],"name":"increaseAllowance","outputs":[{"internalType":"bool","name":"","type":"bool"}],"stateMutability":"nonpayable","type":"function"},{"inputs":[],"name":"isBroken","outputs":[{"internalType":"bool","name":"","type":"bool"}],"stateMutability":"view","type":"function"},{"inputs":[{"internalType":"address","name":"recipient","type":"address"},{"internalType":"uint256","name":"amount","type":"uint256"}],"name":"mint","outputs":[],"stateMutability":"nonpayable","type":"function"},{"inputs":[],"name":"name","outputs":[{"internalType":"string","name":"","type":"string"}],"stateMutability":"view","type":"function"},{"inputs":[{"internalType":"bool","name":"_isBroken","type":"bool"}],"name":"setIsBroken","outputs":[],"stateMutability":"nonpayable","type":"function"},{"inputs":[],"name":"symbol","outputs":[{"internalType":"string","name":"","type":"string"}],"stateMutability":"view","type":"function"},{"inputs":[],"name":"totalSupply","outputs":[{"internalType":"uint256","name":"","type":"uint256"}],"stateMutability":"view","type":"function"},{"inputs":[{"internalType":"address","name":"recipient","type":"address"},{"internalType":"uint256","name":"amount","type":"uint256"}],"name":"transfer","outputs":[{"internalType":"bool","name":"","type":"bool"}],"stateMutability":"nonpayable","type":"function"},{"inputs":[{"internalType":"address","name":"sender","type":"address"},{"internalType":"address","name":"recipient","type":"address"},{"internalType":"uint256","name":"amount","type":"uint256"}],"name":"transferFrom","outputs":[{"internalType":"bool","name":"","type":"bool"}],"stateMutability":"nonpayable","type":"function"}],"evm":{"bytecode":{"linkReferences":{},"object":"60806040523480156200001157600080fd5b5060405162000e5338038062000e53833981810160405260408110156200003757600080fd5b81019080805160405193929190846401000000008211156200005857600080fd5b9083019060208201858111156200006e57600080fd5b82516401000000008111828201881017156200008957600080fd5b82525081516020918201929091019080838360005b83811015620000b85781810151838201526020016200009e565b50505050905090810190601f168015620000e65780820380516001836020036101000a031916815260200191505b50604052602001805160405193929190846401000000008211156200010a57600080fd5b9083019060208201858111156200012057600080fd5b82516401000000008111828201881017156200013b57600080fd5b82525081516020918201929091019080838360005b838110156200016a57818101518382015260200162000150565b50505050905090810190601f168015620001985780820380516001836020036101000a031916815260200191505b50604052505082518391508290620001b8906003906020850190620001e7565b508051620001ce906004906020840190620001e7565b50506005805460ff191660121790555062000283915050565b828054600181600116156101000203166002900490600052602060002090601f016020900481019282601f106200022a57805160ff19168380011785556200025a565b828001600101855582156200025a579182015b828111156200025a5782518255916020019190600101906200023d565b50620002689291506200026c565b5090565b5b808211156200026857600081556001016200026d565b610bc080620002936000396000f3fe608060405234801561001057600080fd5b50600436106100ea5760003560e01c80633ac15e6f1161008c57806395d89b411161006657806395d89b4114610302578063a457c2d71461030a578063a9059cbb14610343578063dd62ed3e1461037c576100ea565b80633ac15e6f1461027557806340c10f191461029657806370a08231146102cf576100ea565b806318160ddd116100c857806318160ddd146101c157806323b872dd146101db578063313ce5671461021e578063395093511461023c576100ea565b806306fdde03146100ef578063095ea7b31461016c5780630dfbe1af146101b9575b600080fd5b6100f76103b7565b6040805160208082528351818301528351919283929083019185019080838360005b83811015610131578181015183820152602001610119565b50505050905090810190601f16801561015e5780820380516001836020036101000a031916815260200191505b509250505060405180910390f35b6101a56004803603604081101561018257600080fd5b5073ffffffffffffffffffffffffffffffffffffffff813516906020013561046b565b604080519115158252519081900360200190f35b6101a56104f6565b6101c9610504565b60408051918252519081900360200190f35b6101a5600480360360608110156101f157600080fd5b5073ffffffffffffffffffffffffffffffffffffffff81358116916020810135909116906040013561050a565b610226610597565b6040805160ff9092168252519081900360200190f35b6101a56004803603604081101561025257600080fd5b5073ffffffffffffffffffffffffffffffffffffffff81351690602001356105a0565b6102946004803603602081101561028b57600080fd5b503515156105f1565b005b610294600480360360408110156102ac57600080fd5b5073ffffffffffffffffffffffffffffffffffffffff8135169060200135610628565b6101c9600480360360208110156102e557600080fd5b503573ffffffffffffffffffffffffffffffffffffffff16610636565b6100f761065e565b6101a56004803603604081101561032057600080fd5b5073ffffffffffffffffffffffffffffffffffffffff81351690602001356106dd565b6101a56004803603604081101561035957600080fd5b5073ffffffffffffffffffffffffffffffffffffffff8135169060200135610723565b6101c96004803603604081101561039257600080fd5b5073ffffffffffffffffffffffffffffffffffffffff813581169160200135166107a7565b60038054604080516020601f60027fffffffffffffffffffffffffffffffffffffffffffffffffffffffffffffffff6101006001881615020190951694909404938401819004810282018101909252828152606093909290918301828280156104615780601f1061043657610100808354040283529160200191610461565b820191906000526020600020905b81548152906001019060200180831161044457829003601f168201915b5050505050905090565b600554600090610100900460ff16156104e557604080517f08c379a000000000000000000000000000000000000000000000000000000000815260206004820152600c60248201527f42524f4b454e5f544f4b454e0000000000000000000000000000000000000000604482015290519081900360640190fd5b6104ef83836107df565b9392505050565b600554610100900460ff1681565b60025490565b600554600090610100900460ff161561058457604080517f08c379a000000000000000000000000000000000000000000000000000000000815260206004820152600c60248201527f42524f4b454e5f544f4b454e0000000000000000000000000000000000000000604482015290519081900360640190fd5b61058f8484846107ec565b949350505050565b60055460ff1690565b33600081815260016020908152604080832073ffffffffffffffffffffffffffffffffffffffff8716845290915281205490916105e89185906105e39086610848565b61085a565b50600192915050565b60058054911515610100027fffffffffffffffffffffffffffffffffffffffffffffffffffffffffffff00ff909216919091179055565b61063282826108c9565b5050565b73ffffffffffffffffffffffffffffffffffffffff1660009081526020819052604090205490565b60048054604080516020601f60027fffffffffffffffffffffffffffffffffffffffffffffffffffffffffffffffff6101006001881615020190951694909404938401819004810282018101909252828152606093909290918301828280156104615780601f1061043657610100808354040283529160200191610461565b33600081815260016020908152604080832073ffffffffffffffffffffffffffffffffffffffff8716845290915281205490916105e89185906105e3908661019f610982565b600554600090610100900460ff161561079d57604080517f08c379a000000000000000000000000000000000000000000000000000000000815260206004820152600c60248201527f42524f4b454e5f544f4b454e0000000000000000000000000000000000000000604482015290519081900360640190fd5b6104ef8383610998565b73ffffffffffffffffffffffffffffffffffffffff918216600090815260016020908152604080832093909416825291909152205490565b60006105e833848461085a565b60006107f98484846109a1565b73ffffffffffffffffffffffffffffffffffffffff841660009081526001602090815260408083203380855292529091205461083e9186916105e3908661019e610982565b5060019392505050565b60008282016104ef8482101583610aca565b73ffffffffffffffffffffffffffffffffffffffff808416600081815260016020908152604080832094871680845294825291829020859055815185815291517f8c5be1e5ebec7d5bd14f71427d1e84f3dd0314c0f7b2291e5b200ac8c7c3b9259281900390910190a3505050565b6108d560008383610ad8565b6108ef6108ea826108e4610504565b90610848565b610add565b73ffffffffffffffffffffffffffffffffffffffff821660009081526020819052604090205461091f9082610848565b73ffffffffffffffffffffffffffffffffffffffff83166000818152602081815260408083209490945583518581529351929391927fddf252ad1be2c89b69c2b068fc378daa952ba7f163c4a11628f55a4df523b3ef9281900390910190a35050565b60006109918484111583610aca565b5050900390565b60006105e83384845b6109c573ffffffffffffffffffffffffffffffffffffffff84161515610198610aca565b6109e973ffffffffffffffffffffffffffffffffffffffff83161515610199610aca565b6109f4838383610ad8565b73ffffffffffffffffffffffffffffffffffffffff8316600090815260208190526040902054610a2790826101a0610982565b73ffffffffffffffffffffffffffffffffffffffff8085166000908152602081905260408082209390935590841681522054610a639082610848565b73ffffffffffffffffffffffffffffffffffffffff8084166000818152602081815260409182902094909455805185815290519193928716927fddf252ad1be2c89b69c2b068fc378daa952ba7f163c4a11628f55a4df523b3ef92918290030190a3505050565b816106325761063281610ae2565b505050565b600255565b610b0c817f42414c0000000000000000000000000000000000000000000000000000000000610b0f565b50565b7f08c379a000000000000000000000000000000000000000000000000000000000600090815260206004526007602452600a808404818106603090810160081b958390069590950190829004918206850160101b01602363ffffff0060e086901c160160181b0190930160c81b60445260e882901c90606490fdfea26469706673582212203020a73e8cb2009338a2c51d3e93be88c1d66a67f8ccff79a502b24775dce59964736f6c63430007010033","opcodes":"PUSH1 0x80 PUSH1 0x40 MSTORE CALLVALUE DUP1 ISZERO PUSH3 0x11 JUMPI PUSH1 0x0 DUP1 REVERT JUMPDEST POP PUSH1 0x40 MLOAD PUSH3 0xE53 CODESIZE SUB DUP1 PUSH3 0xE53 DUP4 CODECOPY DUP2 DUP2 ADD PUSH1 0x40 MSTORE PUSH1 0x40 DUP2 LT ISZERO PUSH3 0x37 JUMPI PUSH1 0x0 DUP1 REVERT JUMPDEST DUP2 ADD SWAP1 DUP1 DUP1 MLOAD PUSH1 0x40 MLOAD SWAP4 SWAP3 SWAP2 SWAP1 DUP5 PUSH5 0x100000000 DUP3 GT ISZERO PUSH3 0x58 JUMPI PUSH1 0x0 DUP1 REVERT JUMPDEST SWAP1 DUP4 ADD SWAP1 PUSH1 0x20 DUP3 ADD DUP6 DUP2 GT ISZERO PUSH3 0x6E JUMPI PUSH1 0x0 DUP1 REVERT JUMPDEST DUP3 MLOAD PUSH5 0x100000000 DUP2 GT DUP3 DUP3 ADD DUP9 LT OR ISZERO PUSH3 0x89 JUMPI PUSH1 0x0 DUP1 REVERT JUMPDEST DUP3 MSTORE POP DUP2 MLOAD PUSH1 0x20 SWAP2 DUP3 ADD SWAP3 SWAP1 SWAP2 ADD SWAP1 DUP1 DUP4 DUP4 PUSH1 0x0 JUMPDEST DUP4 DUP2 LT ISZERO PUSH3 0xB8 JUMPI DUP2 DUP2 ADD MLOAD DUP4 DUP3 ADD MSTORE PUSH1 0x20 ADD PUSH3 0x9E JUMP JUMPDEST POP POP POP POP SWAP1 POP SWAP1 DUP2 ADD SWAP1 PUSH1 0x1F AND DUP1 ISZERO PUSH3 0xE6 JUMPI DUP1 DUP3 SUB DUP1 MLOAD PUSH1 0x1 DUP4 PUSH1 0x20 SUB PUSH2 0x100 EXP SUB NOT AND DUP2 MSTORE PUSH1 0x20 ADD SWAP2 POP JUMPDEST POP PUSH1 0x40 MSTORE PUSH1 0x20 ADD DUP1 MLOAD PUSH1 0x40 MLOAD SWAP4 SWAP3 SWAP2 SWAP1 DUP5 PUSH5 0x100000000 DUP3 GT ISZERO PUSH3 0x10A JUMPI PUSH1 0x0 DUP1 REVERT JUMPDEST SWAP1 DUP4 ADD SWAP1 PUSH1 0x20 DUP3 ADD DUP6 DUP2 GT ISZERO PUSH3 0x120 JUMPI PUSH1 0x0 DUP1 REVERT JUMPDEST DUP3 MLOAD PUSH5 0x100000000 DUP2 GT DUP3 DUP3 ADD DUP9 LT OR ISZERO PUSH3 0x13B JUMPI PUSH1 0x0 DUP1 REVERT JUMPDEST DUP3 MSTORE POP DUP2 MLOAD PUSH1 0x20 SWAP2 DUP3 ADD SWAP3 SWAP1 SWAP2 ADD SWAP1 DUP1 DUP4 DUP4 PUSH1 0x0 JUMPDEST DUP4 DUP2 LT ISZERO PUSH3 0x16A JUMPI DUP2 DUP2 ADD MLOAD DUP4 DUP3 ADD MSTORE PUSH1 0x20 ADD PUSH3 0x150 JUMP JUMPDEST POP POP POP POP SWAP1 POP SWAP1 DUP2 ADD SWAP1 PUSH1 0x1F AND DUP1 ISZERO PUSH3 0x198 JUMPI DUP1 DUP3 SUB DUP1 MLOAD PUSH1 0x1 DUP4 PUSH1 0x20 SUB PUSH2 0x100 EXP SUB NOT AND DUP2 MSTORE PUSH1 0x20 ADD SWAP2 POP JUMPDEST POP PUSH1 0x40 MSTORE POP POP DUP3 MLOAD DUP4 SWAP2 POP DUP3 SWAP1 PUSH3 0x1B8 SWAP1 PUSH1 0x3 SWAP1 PUSH1 0x20 DUP6 ADD SWAP1 PUSH3 0x1E7 JUMP JUMPDEST POP DUP1 MLOAD PUSH3 0x1CE SWAP1 PUSH1 0x4 SWAP1 PUSH1 0x20 DUP5 ADD SWAP1 PUSH3 0x1E7 JUMP JUMPDEST POP POP PUSH1 0x5 DUP1 SLOAD PUSH1 0xFF NOT AND PUSH1 0x12 OR SWAP1 SSTORE POP PUSH3 0x283 SWAP2 POP POP JUMP JUMPDEST DUP3 DUP1 SLOAD PUSH1 0x1 DUP2 PUSH1 0x1 AND ISZERO PUSH2 0x100 MUL SUB AND PUSH1 0x2 SWAP1 DIV SWAP1 PUSH1 0x0 MSTORE PUSH1 0x20 PUSH1 0x0 KECCAK256 SWAP1 PUSH1 0x1F ADD PUSH1 0x20 SWAP1 DIV DUP2 ADD SWAP3 DUP3 PUSH1 0x1F LT PUSH3 0x22A JUMPI DUP1 MLOAD PUSH1 0xFF NOT AND DUP4 DUP1 ADD OR DUP6 SSTORE PUSH3 0x25A JUMP JUMPDEST DUP3 DUP1 ADD PUSH1 0x1 ADD DUP6 SSTORE DUP3 ISZERO PUSH3 0x25A JUMPI SWAP2 DUP3 ADD JUMPDEST DUP3 DUP2 GT ISZERO PUSH3 0x25A JUMPI DUP3 MLOAD DUP3 SSTORE SWAP2 PUSH1 0x20 ADD SWAP2 SWAP1 PUSH1 0x1 ADD SWAP1 PUSH3 0x23D JUMP JUMPDEST POP PUSH3 0x268 SWAP3 SWAP2 POP PUSH3 0x26C JUMP JUMPDEST POP SWAP1 JUMP JUMPDEST JUMPDEST DUP1 DUP3 GT ISZERO PUSH3 0x268 JUMPI PUSH1 0x0 DUP2 SSTORE PUSH1 0x1 ADD PUSH3 0x26D JUMP JUMPDEST PUSH2 0xBC0 DUP1 PUSH3 0x293 PUSH1 0x0 CODECOPY PUSH1 0x0 RETURN INVALID PUSH1 0x80 PUSH1 0x40 MSTORE CALLVALUE DUP1 ISZERO PUSH2 0x10 JUMPI PUSH1 0x0 DUP1 REVERT JUMPDEST POP PUSH1 0x4 CALLDATASIZE LT PUSH2 0xEA JUMPI PUSH1 0x0 CALLDATALOAD PUSH1 0xE0 SHR DUP1 PUSH4 0x3AC15E6F GT PUSH2 0x8C JUMPI DUP1 PUSH4 0x95D89B41 GT PUSH2 0x66 JUMPI DUP1 PUSH4 0x95D89B41 EQ PUSH2 0x302 JUMPI DUP1 PUSH4 0xA457C2D7 EQ PUSH2 0x30A JUMPI DUP1 PUSH4 0xA9059CBB EQ PUSH2 0x343 JUMPI DUP1 PUSH4 0xDD62ED3E EQ PUSH2 0x37C JUMPI PUSH2 0xEA JUMP JUMPDEST DUP1 PUSH4 0x3AC15E6F EQ PUSH2 0x275 JUMPI DUP1 PUSH4 0x40C10F19 EQ PUSH2 0x296 JUMPI DUP1 PUSH4 0x70A08231 EQ PUSH2 0x2CF JUMPI PUSH2 0xEA JUMP JUMPDEST DUP1 PUSH4 0x18160DDD GT PUSH2 0xC8 JUMPI DUP1 PUSH4 0x18160DDD EQ PUSH2 0x1C1 JUMPI DUP1 PUSH4 0x23B872DD EQ PUSH2 0x1DB JUMPI DUP1 PUSH4 0x313CE567 EQ PUSH2 0x21E JUMPI DUP1 PUSH4 0x39509351 EQ PUSH2 0x23C JUMPI PUSH2 0xEA JUMP JUMPDEST DUP1 PUSH4 0x6FDDE03 EQ PUSH2 0xEF JUMPI DUP1 PUSH4 0x95EA7B3 EQ PUSH2 0x16C JUMPI DUP1 PUSH4 0xDFBE1AF EQ PUSH2 0x1B9 JUMPI JUMPDEST PUSH1 0x0 DUP1 REVERT JUMPDEST PUSH2 0xF7 PUSH2 0x3B7 JUMP JUMPDEST PUSH1 0x40 DUP1 MLOAD PUSH1 0x20 DUP1 DUP3 MSTORE DUP4 MLOAD DUP2 DUP4 ADD MSTORE DUP4 MLOAD SWAP2 SWAP3 DUP4 SWAP3 SWAP1 DUP4 ADD SWAP2 DUP6 ADD SWAP1 DUP1 DUP4 DUP4 PUSH1 0x0 JUMPDEST DUP4 DUP2 LT ISZERO PUSH2 0x131 JUMPI DUP2 DUP2 ADD MLOAD DUP4 DUP3 ADD MSTORE PUSH1 0x20 ADD PUSH2 0x119 JUMP JUMPDEST POP POP POP POP SWAP1 POP SWAP1 DUP2 ADD SWAP1 PUSH1 0x1F AND DUP1 ISZERO PUSH2 0x15E JUMPI DUP1 DUP3 SUB DUP1 MLOAD PUSH1 0x1 DUP4 PUSH1 0x20 SUB PUSH2 0x100 EXP SUB NOT AND DUP2 MSTORE PUSH1 0x20 ADD SWAP2 POP JUMPDEST POP SWAP3 POP POP POP PUSH1 0x40 MLOAD DUP1 SWAP2 SUB SWAP1 RETURN JUMPDEST PUSH2 0x1A5 PUSH1 0x4 DUP1 CALLDATASIZE SUB PUSH1 0x40 DUP2 LT ISZERO PUSH2 0x182 JUMPI PUSH1 0x0 DUP1 REVERT JUMPDEST POP PUSH20 0xFFFFFFFFFFFFFFFFFFFFFFFFFFFFFFFFFFFFFFFF DUP2 CALLDATALOAD AND SWAP1 PUSH1 0x20 ADD CALLDATALOAD PUSH2 0x46B JUMP JUMPDEST PUSH1 0x40 DUP1 MLOAD SWAP2 ISZERO ISZERO DUP3 MSTORE MLOAD SWAP1 DUP2 SWAP1 SUB PUSH1 0x20 ADD SWAP1 RETURN JUMPDEST PUSH2 0x1A5 PUSH2 0x4F6 JUMP JUMPDEST PUSH2 0x1C9 PUSH2 0x504 JUMP JUMPDEST PUSH1 0x40 DUP1 MLOAD SWAP2 DUP3 MSTORE MLOAD SWAP1 DUP2 SWAP1 SUB PUSH1 0x20 ADD SWAP1 RETURN JUMPDEST PUSH2 0x1A5 PUSH1 0x4 DUP1 CALLDATASIZE SUB PUSH1 0x60 DUP2 LT ISZERO PUSH2 0x1F1 JUMPI PUSH1 0x0 DUP1 REVERT JUMPDEST POP PUSH20 0xFFFFFFFFFFFFFFFFFFFFFFFFFFFFFFFFFFFFFFFF DUP2 CALLDATALOAD DUP2 AND SWAP2 PUSH1 0x20 DUP2 ADD CALLDATALOAD SWAP1 SWAP2 AND SWAP1 PUSH1 0x40 ADD CALLDATALOAD PUSH2 0x50A JUMP JUMPDEST PUSH2 0x226 PUSH2 0x597 JUMP JUMPDEST PUSH1 0x40 DUP1 MLOAD PUSH1 0xFF SWAP1 SWAP3 AND DUP3 MSTORE MLOAD SWAP1 DUP2 SWAP1 SUB PUSH1 0x20 ADD SWAP1 RETURN JUMPDEST PUSH2 0x1A5 PUSH1 0x4 DUP1 CALLDATASIZE SUB PUSH1 0x40 DUP2 LT ISZERO PUSH2 0x252 JUMPI PUSH1 0x0 DUP1 REVERT JUMPDEST POP PUSH20 0xFFFFFFFFFFFFFFFFFFFFFFFFFFFFFFFFFFFFFFFF DUP2 CALLDATALOAD AND SWAP1 PUSH1 0x20 ADD CALLDATALOAD PUSH2 0x5A0 JUMP JUMPDEST PUSH2 0x294 PUSH1 0x4 DUP1 CALLDATASIZE SUB PUSH1 0x20 DUP2 LT ISZERO PUSH2 0x28B JUMPI PUSH1 0x0 DUP1 REVERT JUMPDEST POP CALLDATALOAD ISZERO ISZERO PUSH2 0x5F1 JUMP JUMPDEST STOP JUMPDEST PUSH2 0x294 PUSH1 0x4 DUP1 CALLDATASIZE SUB PUSH1 0x40 DUP2 LT ISZERO PUSH2 0x2AC JUMPI PUSH1 0x0 DUP1 REVERT JUMPDEST POP PUSH20 0xFFFFFFFFFFFFFFFFFFFFFFFFFFFFFFFFFFFFFFFF DUP2 CALLDATALOAD AND SWAP1 PUSH1 0x20 ADD CALLDATALOAD PUSH2 0x628 JUMP JUMPDEST PUSH2 0x1C9 PUSH1 0x4 DUP1 CALLDATASIZE SUB PUSH1 0x20 DUP2 LT ISZERO PUSH2 0x2E5 JUMPI PUSH1 0x0 DUP1 REVERT JUMPDEST POP CALLDATALOAD PUSH20 0xFFFFFFFFFFFFFFFFFFFFFFFFFFFFFFFFFFFFFFFF AND PUSH2 0x636 JUMP JUMPDEST PUSH2 0xF7 PUSH2 0x65E JUMP JUMPDEST PUSH2 0x1A5 PUSH1 0x4 DUP1 CALLDATASIZE SUB PUSH1 0x40 DUP2 LT ISZERO PUSH2 0x320 JUMPI PUSH1 0x0 DUP1 REVERT JUMPDEST POP PUSH20 0xFFFFFFFFFFFFFFFFFFFFFFFFFFFFFFFFFFFFFFFF DUP2 CALLDATALOAD AND SWAP1 PUSH1 0x20 ADD CALLDATALOAD PUSH2 0x6DD JUMP JUMPDEST PUSH2 0x1A5 PUSH1 0x4 DUP1 CALLDATASIZE SUB PUSH1 0x40 DUP2 LT ISZERO PUSH2 0x359 JUMPI PUSH1 0x0 DUP1 REVERT JUMPDEST POP PUSH20 0xFFFFFFFFFFFFFFFFFFFFFFFFFFFFFFFFFFFFFFFF DUP2 CALLDATALOAD AND SWAP1 PUSH1 0x20 ADD CALLDATALOAD PUSH2 0x723 JUMP JUMPDEST PUSH2 0x1C9 PUSH1 0x4 DUP1 CALLDATASIZE SUB PUSH1 0x40 DUP2 LT ISZERO PUSH2 0x392 JUMPI PUSH1 0x0 DUP1 REVERT JUMPDEST POP PUSH20 0xFFFFFFFFFFFFFFFFFFFFFFFFFFFFFFFFFFFFFFFF DUP2 CALLDATALOAD DUP2 AND SWAP2 PUSH1 0x20 ADD CALLDATALOAD AND PUSH2 0x7A7 JUMP JUMPDEST PUSH1 0x3 DUP1 SLOAD PUSH1 0x40 DUP1 MLOAD PUSH1 0x20 PUSH1 0x1F PUSH1 0x2 PUSH32 0xFFFFFFFFFFFFFFFFFFFFFFFFFFFFFFFFFFFFFFFFFFFFFFFFFFFFFFFFFFFFFFFF PUSH2 0x100 PUSH1 0x1 DUP9 AND ISZERO MUL ADD SWAP1 SWAP6 AND SWAP5 SWAP1 SWAP5 DIV SWAP4 DUP5 ADD DUP2 SWAP1 DIV DUP2 MUL DUP3 ADD DUP2 ADD SWAP1 SWAP3 MSTORE DUP3 DUP2 MSTORE PUSH1 0x60 SWAP4 SWAP1 SWAP3 SWAP1 SWAP2 DUP4 ADD DUP3 DUP3 DUP1 ISZERO PUSH2 0x461 JUMPI DUP1 PUSH1 0x1F LT PUSH2 0x436 JUMPI PUSH2 0x100 DUP1 DUP4 SLOAD DIV MUL DUP4 MSTORE SWAP2 PUSH1 0x20 ADD SWAP2 PUSH2 0x461 JUMP JUMPDEST DUP3 ADD SWAP2 SWAP1 PUSH1 0x0 MSTORE PUSH1 0x20 PUSH1 0x0 KECCAK256 SWAP1 JUMPDEST DUP2 SLOAD DUP2 MSTORE SWAP1 PUSH1 0x1 ADD SWAP1 PUSH1 0x20 ADD DUP1 DUP4 GT PUSH2 0x444 JUMPI DUP3 SWAP1 SUB PUSH1 0x1F AND DUP3 ADD SWAP2 JUMPDEST POP POP POP POP POP SWAP1 POP SWAP1 JUMP JUMPDEST PUSH1 0x5 SLOAD PUSH1 0x0 SWAP1 PUSH2 0x100 SWAP1 DIV PUSH1 0xFF AND ISZERO PUSH2 0x4E5 JUMPI PUSH1 0x40 DUP1 MLOAD PUSH32 0x8C379A000000000000000000000000000000000000000000000000000000000 DUP2 MSTORE PUSH1 0x20 PUSH1 0x4 DUP3 ADD MSTORE PUSH1 0xC PUSH1 0x24 DUP3 ADD MSTORE PUSH32 0x42524F4B454E5F544F4B454E0000000000000000000000000000000000000000 PUSH1 0x44 DUP3 ADD MSTORE SWAP1 MLOAD SWAP1 DUP2 SWAP1 SUB PUSH1 0x64 ADD SWAP1 REVERT JUMPDEST PUSH2 0x4EF DUP4 DUP4 PUSH2 0x7DF JUMP JUMPDEST SWAP4 SWAP3 POP POP POP JUMP JUMPDEST PUSH1 0x5 SLOAD PUSH2 0x100 SWAP1 DIV PUSH1 0xFF AND DUP2 JUMP JUMPDEST PUSH1 0x2 SLOAD SWAP1 JUMP JUMPDEST PUSH1 0x5 SLOAD PUSH1 0x0 SWAP1 PUSH2 0x100 SWAP1 DIV PUSH1 0xFF AND ISZERO PUSH2 0x584 JUMPI PUSH1 0x40 DUP1 MLOAD PUSH32 0x8C379A000000000000000000000000000000000000000000000000000000000 DUP2 MSTORE PUSH1 0x20 PUSH1 0x4 DUP3 ADD MSTORE PUSH1 0xC PUSH1 0x24 DUP3 ADD MSTORE PUSH32 0x42524F4B454E5F544F4B454E0000000000000000000000000000000000000000 PUSH1 0x44 DUP3 ADD MSTORE SWAP1 MLOAD SWAP1 DUP2 SWAP1 SUB PUSH1 0x64 ADD SWAP1 REVERT JUMPDEST PUSH2 0x58F DUP5 DUP5 DUP5 PUSH2 0x7EC JUMP JUMPDEST SWAP5 SWAP4 POP POP POP POP JUMP JUMPDEST PUSH1 0x5 SLOAD PUSH1 0xFF AND SWAP1 JUMP JUMPDEST CALLER PUSH1 0x0 DUP2 DUP2 MSTORE PUSH1 0x1 PUSH1 0x20 SWAP1 DUP2 MSTORE PUSH1 0x40 DUP1 DUP4 KECCAK256 PUSH20 0xFFFFFFFFFFFFFFFFFFFFFFFFFFFFFFFFFFFFFFFF DUP8 AND DUP5 MSTORE SWAP1 SWAP2 MSTORE DUP2 KECCAK256 SLOAD SWAP1 SWAP2 PUSH2 0x5E8 SWAP2 DUP6 SWAP1 PUSH2 0x5E3 SWAP1 DUP7 PUSH2 0x848 JUMP JUMPDEST PUSH2 0x85A JUMP JUMPDEST POP PUSH1 0x1 SWAP3 SWAP2 POP POP JUMP JUMPDEST PUSH1 0x5 DUP1 SLOAD SWAP2 ISZERO ISZERO PUSH2 0x100 MUL PUSH32 0xFFFFFFFFFFFFFFFFFFFFFFFFFFFFFFFFFFFFFFFFFFFFFFFFFFFFFFFFFFFF00FF SWAP1 SWAP3 AND SWAP2 SWAP1 SWAP2 OR SWAP1 SSTORE JUMP JUMPDEST PUSH2 0x632 DUP3 DUP3 PUSH2 0x8C9 JUMP JUMPDEST POP POP JUMP JUMPDEST PUSH20 0xFFFFFFFFFFFFFFFFFFFFFFFFFFFFFFFFFFFFFFFF AND PUSH1 0x0 SWAP1 DUP2 MSTORE PUSH1 0x20 DUP2 SWAP1 MSTORE PUSH1 0x40 SWAP1 KECCAK256 SLOAD SWAP1 JUMP JUMPDEST PUSH1 0x4 DUP1 SLOAD PUSH1 0x40 DUP1 MLOAD PUSH1 0x20 PUSH1 0x1F PUSH1 0x2 PUSH32 0xFFFFFFFFFFFFFFFFFFFFFFFFFFFFFFFFFFFFFFFFFFFFFFFFFFFFFFFFFFFFFFFF PUSH2 0x100 PUSH1 0x1 DUP9 AND ISZERO MUL ADD SWAP1 SWAP6 AND SWAP5 SWAP1 SWAP5 DIV SWAP4 DUP5 ADD DUP2 SWAP1 DIV DUP2 MUL DUP3 ADD DUP2 ADD SWAP1 SWAP3 MSTORE DUP3 DUP2 MSTORE PUSH1 0x60 SWAP4 SWAP1 SWAP3 SWAP1 SWAP2 DUP4 ADD DUP3 DUP3 DUP1 ISZERO PUSH2 0x461 JUMPI DUP1 PUSH1 0x1F LT PUSH2 0x436 JUMPI PUSH2 0x100 DUP1 DUP4 SLOAD DIV MUL DUP4 MSTORE SWAP2 PUSH1 0x20 ADD SWAP2 PUSH2 0x461 JUMP JUMPDEST CALLER PUSH1 0x0 DUP2 DUP2 MSTORE PUSH1 0x1 PUSH1 0x20 SWAP1 DUP2 MSTORE PUSH1 0x40 DUP1 DUP4 KECCAK256 PUSH20 0xFFFFFFFFFFFFFFFFFFFFFFFFFFFFFFFFFFFFFFFF DUP8 AND DUP5 MSTORE SWAP1 SWAP2 MSTORE DUP2 KECCAK256 SLOAD SWAP1 SWAP2 PUSH2 0x5E8 SWAP2 DUP6 SWAP1 PUSH2 0x5E3 SWAP1 DUP7 PUSH2 0x19F PUSH2 0x982 JUMP JUMPDEST PUSH1 0x5 SLOAD PUSH1 0x0 SWAP1 PUSH2 0x100 SWAP1 DIV PUSH1 0xFF AND ISZERO PUSH2 0x79D JUMPI PUSH1 0x40 DUP1 MLOAD PUSH32 0x8C379A000000000000000000000000000000000000000000000000000000000 DUP2 MSTORE PUSH1 0x20 PUSH1 0x4 DUP3 ADD MSTORE PUSH1 0xC PUSH1 0x24 DUP3 ADD MSTORE PUSH32 0x42524F4B454E5F544F4B454E0000000000000000000000000000000000000000 PUSH1 0x44 DUP3 ADD MSTORE SWAP1 MLOAD SWAP1 DUP2 SWAP1 SUB PUSH1 0x64 ADD SWAP1 REVERT JUMPDEST PUSH2 0x4EF DUP4 DUP4 PUSH2 0x998 JUMP JUMPDEST PUSH20 0xFFFFFFFFFFFFFFFFFFFFFFFFFFFFFFFFFFFFFFFF SWAP2 DUP3 AND PUSH1 0x0 SWAP1 DUP2 MSTORE PUSH1 0x1 PUSH1 0x20 SWAP1 DUP2 MSTORE PUSH1 0x40 DUP1 DUP4 KECCAK256 SWAP4 SWAP1 SWAP5 AND DUP3 MSTORE SWAP2 SWAP1 SWAP2 MSTORE KECCAK256 SLOAD SWAP1 JUMP JUMPDEST PUSH1 0x0 PUSH2 0x5E8 CALLER DUP5 DUP5 PUSH2 0x85A JUMP JUMPDEST PUSH1 0x0 PUSH2 0x7F9 DUP5 DUP5 DUP5 PUSH2 0x9A1 JUMP JUMPDEST PUSH20 0xFFFFFFFFFFFFFFFFFFFFFFFFFFFFFFFFFFFFFFFF DUP5 AND PUSH1 0x0 SWAP1 DUP2 MSTORE PUSH1 0x1 PUSH1 0x20 SWAP1 DUP2 MSTORE PUSH1 0x40 DUP1 DUP4 KECCAK256 CALLER DUP1 DUP6 MSTORE SWAP3 MSTORE SWAP1 SWAP2 KECCAK256 SLOAD PUSH2 0x83E SWAP2 DUP7 SWAP2 PUSH2 0x5E3 SWAP1 DUP7 PUSH2 0x19E PUSH2 0x982 JUMP JUMPDEST POP PUSH1 0x1 SWAP4 SWAP3 POP POP POP JUMP JUMPDEST PUSH1 0x0 DUP3 DUP3 ADD PUSH2 0x4EF DUP5 DUP3 LT ISZERO DUP4 PUSH2 0xACA JUMP JUMPDEST PUSH20 0xFFFFFFFFFFFFFFFFFFFFFFFFFFFFFFFFFFFFFFFF DUP1 DUP5 AND PUSH1 0x0 DUP2 DUP2 MSTORE PUSH1 0x1 PUSH1 0x20 SWAP1 DUP2 MSTORE PUSH1 0x40 DUP1 DUP4 KECCAK256 SWAP5 DUP8 AND DUP1 DUP5 MSTORE SWAP5 DUP3 MSTORE SWAP2 DUP3 SWAP1 KECCAK256 DUP6 SWAP1 SSTORE DUP2 MLOAD DUP6 DUP2 MSTORE SWAP2 MLOAD PUSH32 0x8C5BE1E5EBEC7D5BD14F71427D1E84F3DD0314C0F7B2291E5B200AC8C7C3B925 SWAP3 DUP2 SWAP1 SUB SWAP1 SWAP2 ADD SWAP1 LOG3 POP POP POP JUMP JUMPDEST PUSH2 0x8D5 PUSH1 0x0 DUP4 DUP4 PUSH2 0xAD8 JUMP JUMPDEST PUSH2 0x8EF PUSH2 0x8EA DUP3 PUSH2 0x8E4 PUSH2 0x504 JUMP JUMPDEST SWAP1 PUSH2 0x848 JUMP JUMPDEST PUSH2 0xADD JUMP JUMPDEST PUSH20 0xFFFFFFFFFFFFFFFFFFFFFFFFFFFFFFFFFFFFFFFF DUP3 AND PUSH1 0x0 SWAP1 DUP2 MSTORE PUSH1 0x20 DUP2 SWAP1 MSTORE PUSH1 0x40 SWAP1 KECCAK256 SLOAD PUSH2 0x91F SWAP1 DUP3 PUSH2 0x848 JUMP JUMPDEST PUSH20 0xFFFFFFFFFFFFFFFFFFFFFFFFFFFFFFFFFFFFFFFF DUP4 AND PUSH1 0x0 DUP2 DUP2 MSTORE PUSH1 0x20 DUP2 DUP2 MSTORE PUSH1 0x40 DUP1 DUP4 KECCAK256 SWAP5 SWAP1 SWAP5 SSTORE DUP4 MLOAD DUP6 DUP2 MSTORE SWAP4 MLOAD SWAP3 SWAP4 SWAP2 SWAP3 PUSH32 0xDDF252AD1BE2C89B69C2B068FC378DAA952BA7F163C4A11628F55A4DF523B3EF SWAP3 DUP2 SWAP1 SUB SWAP1 SWAP2 ADD SWAP1 LOG3 POP POP JUMP JUMPDEST PUSH1 0x0 PUSH2 0x991 DUP5 DUP5 GT ISZERO DUP4 PUSH2 0xACA JUMP JUMPDEST POP POP SWAP1 SUB SWAP1 JUMP JUMPDEST PUSH1 0x0 PUSH2 0x5E8 CALLER DUP5 DUP5 JUMPDEST PUSH2 0x9C5 PUSH20 0xFFFFFFFFFFFFFFFFFFFFFFFFFFFFFFFFFFFFFFFF DUP5 AND ISZERO ISZERO PUSH2 0x198 PUSH2 0xACA JUMP JUMPDEST PUSH2 0x9E9 PUSH20 0xFFFFFFFFFFFFFFFFFFFFFFFFFFFFFFFFFFFFFFFF DUP4 AND ISZERO ISZERO PUSH2 0x199 PUSH2 0xACA JUMP JUMPDEST PUSH2 0x9F4 DUP4 DUP4 DUP4 PUSH2 0xAD8 JUMP JUMPDEST PUSH20 0xFFFFFFFFFFFFFFFFFFFFFFFFFFFFFFFFFFFFFFFF DUP4 AND PUSH1 0x0 SWAP1 DUP2 MSTORE PUSH1 0x20 DUP2 SWAP1 MSTORE PUSH1 0x40 SWAP1 KECCAK256 SLOAD PUSH2 0xA27 SWAP1 DUP3 PUSH2 0x1A0 PUSH2 0x982 JUMP JUMPDEST PUSH20 0xFFFFFFFFFFFFFFFFFFFFFFFFFFFFFFFFFFFFFFFF DUP1 DUP6 AND PUSH1 0x0 SWAP1 DUP2 MSTORE PUSH1 0x20 DUP2 SWAP1 MSTORE PUSH1 0x40 DUP1 DUP3 KECCAK256 SWAP4 SWAP1 SWAP4 SSTORE SWAP1 DUP5 AND DUP2 MSTORE KECCAK256 SLOAD PUSH2 0xA63 SWAP1 DUP3 PUSH2 0x848 JUMP JUMPDEST PUSH20 0xFFFFFFFFFFFFFFFFFFFFFFFFFFFFFFFFFFFFFFFF DUP1 DUP5 AND PUSH1 0x0 DUP2 DUP2 MSTORE PUSH1 0x20 DUP2 DUP2 MSTORE PUSH1 0x40 SWAP2 DUP3 SWAP1 KECCAK256 SWAP5 SWAP1 SWAP5 SSTORE DUP1 MLOAD DUP6 DUP2 MSTORE SWAP1 MLOAD SWAP2 SWAP4 SWAP3 DUP8 AND SWAP3 PUSH32 0xDDF252AD1BE2C89B69C2B068FC378DAA952BA7F163C4A11628F55A4DF523B3EF SWAP3 SWAP2 DUP3 SWAP1 SUB ADD SWAP1 LOG3 POP POP POP JUMP JUMPDEST DUP2 PUSH2 0x632 JUMPI PUSH2 0x632 DUP2 PUSH2 0xAE2 JUMP JUMPDEST POP POP POP JUMP JUMPDEST PUSH1 0x2 SSTORE JUMP JUMPDEST PUSH2 0xB0C DUP2 PUSH32 0x42414C0000000000000000000000000000000000000000000000000000000000 PUSH2 0xB0F JUMP JUMPDEST POP JUMP JUMPDEST PUSH32 0x8C379A000000000000000000000000000000000000000000000000000000000 PUSH1 0x0 SWAP1 DUP2 MSTORE PUSH1 0x20 PUSH1 0x4 MSTORE PUSH1 0x7 PUSH1 0x24 MSTORE PUSH1 0xA DUP1 DUP5 DIV DUP2 DUP2 MOD PUSH1 0x30 SWAP1 DUP2 ADD PUSH1 0x8 SHL SWAP6 DUP4 SWAP1 MOD SWAP6 SWAP1 SWAP6 ADD SWAP1 DUP3 SWAP1 DIV SWAP2 DUP3 MOD DUP6 ADD PUSH1 0x10 SHL ADD PUSH1 0x23 PUSH4 0xFFFFFF00 PUSH1 0xE0 DUP7 SWAP1 SHR AND ADD PUSH1 0x18 SHL ADD SWAP1 SWAP4 ADD PUSH1 0xC8 SHL PUSH1 0x44 MSTORE PUSH1 0xE8 DUP3 SWAP1 SHR SWAP1 PUSH1 0x64 SWAP1 REVERT INVALID LOG2 PUSH5 0x6970667358 0x22 SLT KECCAK256 ADDRESS KECCAK256 0xA7 RETURNDATACOPY DUP13 0xB2 STOP SWAP4 CODESIZE LOG2 0xC5 SAR RETURNDATACOPY SWAP4 0xBE DUP9 0xC1 0xD6 PUSH11 0x67F8CCFF79A502B24775DC 0xE5 SWAP10 PUSH5 0x736F6C6343 STOP SMOD ADD STOP CALLER "},"methodIdentifiers":{"allowance(address,address)":"dd62ed3e","approve(address,uint256)":"095ea7b3","balanceOf(address)":"70a08231","decimals()":"313ce567","decreaseAllowance(address,uint256)":"a457c2d7","increaseAllowance(address,uint256)":"39509351","isBroken()":"0dfbe1af","mint(address,uint256)":"40c10f19","name()":"06fdde03","setIsBroken(bool)":"3ac15e6f","symbol()":"95d89b41","totalSupply()":"18160ddd","transfer(address,uint256)":"a9059cbb","transferFrom(address,address,uint256)":"23b872dd"}}}}}