{"contracts/helpers/TemporarilyPausable.sol":{"PausableConstants":{"abi":[{"inputs":[],"name":"MAX_BUFFER_PERIOD_DURATION","outputs":[{"internalType":"uint256","name":"","type":"uint256"}],"stateMutability":"view","type":"function"},{"inputs":[],"name":"MAX_PAUSE_WINDOW_DURATION","outputs":[{"internalType":"uint256","name":"","type":"uint256"}],"stateMutability":"view","type":"function"}],"evm":{"bytecode":{"linkReferences":{},"object":"60a5610024600b82828239805160001a607314601757fe5b30600052607381538281f3fe7300000000000000000000000000000000000000003014608060405260043610603d5760003560e01c80638b19548d146042578063fc5e93fe14605a575b600080fd5b60486060565b60408051918252519081900360200190f35b60486067565b6276a70081565b630163f5008156fea264697066735822122030c0384b3ee8625273c784c06f414b63a1d253ef0f4131bac0a92404ae5901bb64736f6c63430007010033","opcodes":"PUSH1 0xA5 PUSH2 0x24 PUSH1 0xB DUP3 DUP3 DUP3 CODECOPY DUP1 MLOAD PUSH1 0x0 BYTE PUSH1 0x73 EQ PUSH1 0x17 JUMPI INVALID JUMPDEST ADDRESS PUSH1 0x0 MSTORE PUSH1 0x73 DUP2 MSTORE8 DUP3 DUP2 RETURN INVALID PUSH20 0x0 ADDRESS EQ PUSH1 0x80 PUSH1 0x40 MSTORE PUSH1 0x4 CALLDATASIZE LT PUSH1 0x3D JUMPI PUSH1 0x0 CALLDATALOAD PUSH1 0xE0 SHR DUP1 PUSH4 0x8B19548D EQ PUSH1 0x42 JUMPI DUP1 PUSH4 0xFC5E93FE EQ PUSH1 0x5A JUMPI JUMPDEST PUSH1 0x0 DUP1 REVERT JUMPDEST PUSH1 0x48 PUSH1 0x60 JUMP JUMPDEST PUSH1 0x40 DUP1 MLOAD SWAP2 DUP3 MSTORE MLOAD SWAP1 DUP2 SWAP1 SUB PUSH1 0x20 ADD SWAP1 RETURN JUMPDEST PUSH1 0x48 PUSH1 0x67 JUMP JUMPDEST PUSH3 0x76A700 DUP2 JUMP JUMPDEST PUSH4 0x163F500 DUP2 JUMP INVALID LOG2 PUSH5 0x6970667358 0x22 SLT KECCAK256 ADDRESS 0xC0 CODESIZE 0x4B RETURNDATACOPY 0xE8 PUSH3 0x5273C7 DUP5 0xC0 PUSH16 0x414B63A1D253EF0F4131BAC0A92404AE MSIZE ADD 0xBB PUSH5 0x736F6C6343 STOP SMOD ADD STOP CALLER "},"methodIdentifiers":{"MAX_BUFFER_PERIOD_DURATION()":"8b19548d","MAX_PAUSE_WINDOW_DURATION()":"fc5e93fe"}}}}}