{"contracts/test/TemporarilyPausableMock.sol":{"TemporarilyPausableMock":{"abi":[{"inputs":[{"internalType":"uint256","name":"pauseWindowDuration","type":"uint256"},{"internalType":"uint256","name":"bufferPeriodDuration","type":"uint256"}],"stateMutability":"nonpayable","type":"constructor"},{"anonymous":false,"inputs":[{"indexed":false,"internalType":"bool","name":"paused","type":"bool"}],"name":"PausedStateChanged","type":"event"},{"inputs":[],"name":"getMaxBufferPeriodDuration","outputs":[{"internalType":"uint256","name":"","type":"uint256"}],"stateMutability":"pure","type":"function"},{"inputs":[],"name":"getMaxPauseWindowDuration","outputs":[{"internalType":"uint256","name":"","type":"uint256"}],"stateMutability":"pure","type":"function"},{"inputs":[],"name":"getPausedState","outputs":[{"internalType":"bool","name":"paused","type":"bool"},{"internalType":"uint256","name":"pauseWindowEndTime","type":"uint256"},{"internalType":"uint256","name":"bufferPeriodEndTime","type":"uint256"}],"stateMutability":"view","type":"function"},{"inputs":[{"internalType":"bool","name":"paused","type":"bool"}],"name":"setPaused","outputs":[],"stateMutability":"nonpayable","type":"function"}],"evm":{"bytecode":{"linkReferences":{},"object":"60c060405234801561001057600080fd5b506040516103f93803806103f98339818101604052604081101561003357600080fd5b5080516020909101518181610051630163f500831115610194610078565b6100636276a700821115610195610078565b4290910160808190520160a052506100fe9050565b81610086576100868161008a565b5050565b61009a816210905360ea1b61009d565b50565b62461bcd60e51b600090815260206004526007602452600a808404818106603090810160081b958390069590950190829004918206850160101b01602363ffffff0060e086901c160160181b0190930160c81b60445260e882901c90606490fd5b60805160a0516102d8610121600039806101df5250806101bb52506102d86000f3fe608060405234801561001057600080fd5b506004361061004c5760003560e01c806316c38b3c146100515780631c0de0511461007257806388f1d2041461009a578063cd43a4d5146100b4575b600080fd5b6100706004803603602081101561006757600080fd5b503515156100bc565b005b61007a6100c8565b604080519315158452602084019290925282820152519081900360600190f35b6100a26100f1565b60408051918252519081900360200190f35b6100a26100f8565b6100c581610100565b50565b60008060006100d561019a565b1592506100e06101b9565b91506100ea6101dd565b9050909192565b6276a70090565b630163f50090565b80156101205761011b6101116101b9565b4210610193610201565b610135565b61013561012b6101dd565b42106101a9610201565b600080548215157fffffffffffffffffffffffffffffffffffffffffffffffffffffffffffffff00909116811790915560408051918252517f9e3a5e37224532dea67b89face185703738a228a6e8a23dee546960180d3be649181900360200190a150565b60006101a46101dd565b4211806101b4575060005460ff16155b905090565b7f000000000000000000000000000000000000000000000000000000000000000090565b7f000000000000000000000000000000000000000000000000000000000000000090565b8161020f5761020f81610213565b5050565b7f08c379a000000000000000000000000000000000000000000000000000000000600090815260206004526007602452600a808304818106603090810160081b83860601918390049283060160101b016642414c230000300160c81b6044526100c5917f42414c0000000000000000000000000000000000000000000000000000000000906242414c90606490fdfea264697066735822122006c7fa82287b1ae9e48975ed96174548cfc84d64f6e693aad21b6d0d4abff3ee64736f6c63430007010033","opcodes":"PUSH1 0xC0 PUSH1 0x40 MSTORE CALLVALUE DUP1 ISZERO PUSH2 0x10 JUMPI PUSH1 0x0 DUP1 REVERT JUMPDEST POP PUSH1 0x40 MLOAD PUSH2 0x3F9 CODESIZE SUB DUP1 PUSH2 0x3F9 DUP4 CODECOPY DUP2 DUP2 ADD PUSH1 0x40 MSTORE PUSH1 0x40 DUP2 LT ISZERO PUSH2 0x33 JUMPI PUSH1 0x0 DUP1 REVERT JUMPDEST POP DUP1 MLOAD PUSH1 0x20 SWAP1 SWAP2 ADD MLOAD DUP2 DUP2 PUSH2 0x51 PUSH4 0x163F500 DUP4 GT ISZERO PUSH2 0x194 PUSH2 0x78 JUMP JUMPDEST PUSH2 0x63 PUSH3 0x76A700 DUP3 GT ISZERO PUSH2 0x195 PUSH2 0x78 JUMP JUMPDEST TIMESTAMP SWAP1 SWAP2 ADD PUSH1 0x80 DUP2 SWAP1 MSTORE ADD PUSH1 0xA0 MSTORE POP PUSH2 0xFE SWAP1 POP JUMP JUMPDEST DUP2 PUSH2 0x86 JUMPI PUSH2 0x86 DUP2 PUSH2 0x8A JUMP JUMPDEST POP POP JUMP JUMPDEST PUSH2 0x9A DUP2 PUSH3 0x109053 PUSH1 0xEA SHL PUSH2 0x9D JUMP JUMPDEST POP JUMP JUMPDEST PUSH3 0x461BCD PUSH1 0xE5 SHL PUSH1 0x0 SWAP1 DUP2 MSTORE PUSH1 0x20 PUSH1 0x4 MSTORE PUSH1 0x7 PUSH1 0x24 MSTORE PUSH1 0xA DUP1 DUP5 DIV DUP2 DUP2 MOD PUSH1 0x30 SWAP1 DUP2 ADD PUSH1 0x8 SHL SWAP6 DUP4 SWAP1 MOD SWAP6 SWAP1 SWAP6 ADD SWAP1 DUP3 SWAP1 DIV SWAP2 DUP3 MOD DUP6 ADD PUSH1 0x10 SHL ADD PUSH1 0x23 PUSH4 0xFFFFFF00 PUSH1 0xE0 DUP7 SWAP1 SHR AND ADD PUSH1 0x18 SHL ADD SWAP1 SWAP4 ADD PUSH1 0xC8 SHL PUSH1 0x44 MSTORE PUSH1 0xE8 DUP3 SWAP1 SHR SWAP1 PUSH1 0x64 SWAP1 REVERT JUMPDEST PUSH1 0x80 MLOAD PUSH1 0xA0 MLOAD PUSH2 0x2D8 PUSH2 0x121 PUSH1 0x0 CODECOPY DUP1 PUSH2 0x1DF MSTORE POP DUP1 PUSH2 0x1BB MSTORE POP PUSH2 0x2D8 PUSH1 0x0 RETURN INVALID PUSH1 0x80 PUSH1 0x40 MSTORE CALLVALUE DUP1 ISZERO PUSH2 0x10 JUMPI PUSH1 0x0 DUP1 REVERT JUMPDEST POP PUSH1 0x4 CALLDATASIZE LT PUSH2 0x4C JUMPI PUSH1 0x0 CALLDATALOAD PUSH1 0xE0 SHR DUP1 PUSH4 0x16C38B3C EQ PUSH2 0x51 JUMPI DUP1 PUSH4 0x1C0DE051 EQ PUSH2 0x72 JUMPI DUP1 PUSH4 0x88F1D204 EQ PUSH2 0x9A JUMPI DUP1 PUSH4 0xCD43A4D5 EQ PUSH2 0xB4 JUMPI JUMPDEST PUSH1 0x0 DUP1 REVERT JUMPDEST PUSH2 0x70 PUSH1 0x4 DUP1 CALLDATASIZE SUB PUSH1 0x20 DUP2 LT ISZERO PUSH2 0x67 JUMPI PUSH1 0x0 DUP1 REVERT JUMPDEST POP CALLDATALOAD ISZERO ISZERO PUSH2 0xBC JUMP JUMPDEST STOP JUMPDEST PUSH2 0x7A PUSH2 0xC8 JUMP JUMPDEST PUSH1 0x40 DUP1 MLOAD SWAP4 ISZERO ISZERO DUP5 MSTORE PUSH1 0x20 DUP5 ADD SWAP3 SWAP1 SWAP3 MSTORE DUP3 DUP3 ADD MSTORE MLOAD SWAP1 DUP2 SWAP1 SUB PUSH1 0x60 ADD SWAP1 RETURN JUMPDEST PUSH2 0xA2 PUSH2 0xF1 JUMP JUMPDEST PUSH1 0x40 DUP1 MLOAD SWAP2 DUP3 MSTORE MLOAD SWAP1 DUP2 SWAP1 SUB PUSH1 0x20 ADD SWAP1 RETURN JUMPDEST PUSH2 0xA2 PUSH2 0xF8 JUMP JUMPDEST PUSH2 0xC5 DUP2 PUSH2 0x100 JUMP JUMPDEST POP JUMP JUMPDEST PUSH1 0x0 DUP1 PUSH1 0x0 PUSH2 0xD5 PUSH2 0x19A JUMP JUMPDEST ISZERO SWAP3 POP PUSH2 0xE0 PUSH2 0x1B9 JUMP JUMPDEST SWAP2 POP PUSH2 0xEA PUSH2 0x1DD JUMP JUMPDEST SWAP1 POP SWAP1 SWAP2 SWAP3 JUMP JUMPDEST PUSH3 0x76A700 SWAP1 JUMP JUMPDEST PUSH4 0x163F500 SWAP1 JUMP JUMPDEST DUP1 ISZERO PUSH2 0x120 JUMPI PUSH2 0x11B PUSH2 0x111 PUSH2 0x1B9 JUMP JUMPDEST TIMESTAMP LT PUSH2 0x193 PUSH2 0x201 JUMP JUMPDEST PUSH2 0x135 JUMP JUMPDEST PUSH2 0x135 PUSH2 0x12B PUSH2 0x1DD JUMP JUMPDEST TIMESTAMP LT PUSH2 0x1A9 PUSH2 0x201 JUMP JUMPDEST PUSH1 0x0 DUP1 SLOAD DUP3 ISZERO ISZERO PUSH32 0xFFFFFFFFFFFFFFFFFFFFFFFFFFFFFFFFFFFFFFFFFFFFFFFFFFFFFFFFFFFFFF00 SWAP1 SWAP2 AND DUP2 OR SWAP1 SWAP2 SSTORE PUSH1 0x40 DUP1 MLOAD SWAP2 DUP3 MSTORE MLOAD PUSH32 0x9E3A5E37224532DEA67B89FACE185703738A228A6E8A23DEE546960180D3BE64 SWAP2 DUP2 SWAP1 SUB PUSH1 0x20 ADD SWAP1 LOG1 POP JUMP JUMPDEST PUSH1 0x0 PUSH2 0x1A4 PUSH2 0x1DD JUMP JUMPDEST TIMESTAMP GT DUP1 PUSH2 0x1B4 JUMPI POP PUSH1 0x0 SLOAD PUSH1 0xFF AND ISZERO JUMPDEST SWAP1 POP SWAP1 JUMP JUMPDEST PUSH32 0x0 SWAP1 JUMP JUMPDEST PUSH32 0x0 SWAP1 JUMP JUMPDEST DUP2 PUSH2 0x20F JUMPI PUSH2 0x20F DUP2 PUSH2 0x213 JUMP JUMPDEST POP POP JUMP JUMPDEST PUSH32 0x8C379A000000000000000000000000000000000000000000000000000000000 PUSH1 0x0 SWAP1 DUP2 MSTORE PUSH1 0x20 PUSH1 0x4 MSTORE PUSH1 0x7 PUSH1 0x24 MSTORE PUSH1 0xA DUP1 DUP4 DIV DUP2 DUP2 MOD PUSH1 0x30 SWAP1 DUP2 ADD PUSH1 0x8 SHL DUP4 DUP7 MOD ADD SWAP2 DUP4 SWAP1 DIV SWAP3 DUP4 MOD ADD PUSH1 0x10 SHL ADD PUSH7 0x42414C23000030 ADD PUSH1 0xC8 SHL PUSH1 0x44 MSTORE PUSH2 0xC5 SWAP2 PUSH32 0x42414C0000000000000000000000000000000000000000000000000000000000 SWAP1 PUSH3 0x42414C SWAP1 PUSH1 0x64 SWAP1 REVERT INVALID LOG2 PUSH5 0x6970667358 0x22 SLT KECCAK256 MOD 0xC7 STATICCALL DUP3 0x28 PUSH28 0x1AE9E48975ED96174548CFC84D64F6E693AAD21B6D0D4ABFF3EE6473 PUSH16 0x6C634300070100330000000000000000 "},"methodIdentifiers":{"getMaxBufferPeriodDuration()":"88f1d204","getMaxPauseWindowDuration()":"cd43a4d5","getPausedState()":"1c0de051","setPaused(bool)":"16c38b3c"}}}}}